:100000000C9412020C943A020C943A020C943A02A8
:100010000C943A020C943A020C94FE050C943A02A9
:100020000C943A020C943A020C943A020C943A0260
:100030000C943A020C943A020C943A020C943A0250
:100040000C94A6180C943A020C9419110C94F31009
:100050000C943A020C943A020C943A020C943A0230
:100060000C943A020C943A0200407A10F35A00A021
:10007000724E18090010A5D4E80000E87648170071
:1000800000E40B54020000CA9A3B000000E1F505B1
:10009000000080969800000040420F000000A086FB
:1000A00001000000102700000000E803000000002D
:1000B0006400000000000A000000000001000000D1
:1000C00000002C76D888DC674F0823DFC1DFAE59EB
:1000D000E1B1B796E5E3E453C63AE651997696E87E
:1000E000E6C28426EB898C9B62ED407C6FFCEFBC02
:1000F0009C9F40F2BAA56FA5F490055A2AF75C932D
:100100006B6CF9676DC11BFCE0E40D47FEF520E662
:10011000B500D0ED902E0300943577050080841E45
:10012000080000204E0A000000C80C333333330FA0
:10013000986E12831141EF8D2114893BE65516CF3D
:10014000FEE6DB18D1844B381BF77C1D901DA4BB49
:10015000E424203284725E228100C9F124ECA1E5FE
:100160003D2700030C0F30333C3FC0C3CCCFF0F32E
:10017000FCFFAED580A83FD300408D142002A1C85B
:10018000DA12817FD9F1DB40A4A6AF005EBCE26148
:100190003FDD83C29C7E20A3FD1F41009D23BE4600
:1001A000DB65F88C11AF32CA57E9745374616E6421
:1001B000696E672062792E2E2E0053746172746905
:1001C0006E672E2E00000005072061000000000071
:1001D00000005F00000007000700147F147F142454
:1001E0002A7F2A12231308646236495522500005DB
:1001F000030000001C2241000041221C00082A1CB0
:100200002A0808083E0808005030000008080808BE
:1002100008006060000020100804023E5149453E7D
:1002200000427F400042615149462141454B31180F
:1002300014127F1027454545393C4A494930017120
:100240000905033649494936064949291E0036360B
:100250000000005636000000081422411414141443
:100260001441221408000201510906324979413E25
:100270007E1111117E7F494949363E414141227F1D
:100280004141221C7F494949417F090901013E4101
:100290004151327F0808087F00417F4100204041E2
:1002A0003F017F081422417F404040407F0204020A
:1002B0007F7F0408107F3E4141413E7F09090906C6
:1002C0003E4151215E7F091929464649494931017C
:1002D000017F01013F4040403F1F2040201F7F2001
:1002E00018207F63140814630304780403615149E0
:1002F000454300007F4141020408102041417F0036
:100300000004020102044040404040000102040099
:1003100020545454787F4844443838444444203866
:100320004444487F3854545418087E090102081484
:1003300054543C7F0804047800447D40002040442D
:100340003D00007F10284400417F40007C041804D9
:10035000787C0804047838444444387C1414140825
:10036000081414187C7C08040408485454542004CD
:100370003F4440203C4040207C1C2040201C3C400E
:1003800030403C44281028440C5050503C446454A5
:100390004C44000836410000007F00000041360850
:1003A0000008082A1C08081C2A0808000609090673
:1003B0007201198040000001020304051112131498
:1003C00015160A0B0C0D0E0F00000000230026006E
:1003D00029000404040404040404020202020202C8
:1003E00003030303030301020408102040800102F9
:1003F000040810200102040810200000000024005E
:1004000027002A0000000000250028002B00000023
:1004100000080002010000030407000000000000C3
:100420000000251C11241FBECFEFD8E0DEBFCDBFDA
:1004300024E0A8E8B1E001C01D92AC31B207E1F7B9
:1004400011E0A0E0B1E0E0E0F4E402C005900D921C
:10045000A838B107D9F712E0C2E1D2E004C0219771
:10046000FE010E94BD20C131D107C9F70E94F018DA
:100470000C94FE210C940000CF93DF93EC019C813F
:100480008E81981758F4E881F9810084F185E02D78
:1004900042E0CE0109958C818F5F8C83DF91CF91F3
:1004A0000895089580E090E008958F929F92AF9212
:1004B000BF92CF92DF92EF92FF920F931F93CF9351
:1004C000DF93EC017B01CCA8D12C860108501109E7
:1004D000DB0116969C918CE6890F833020F0983CC6
:1004E00009F0CFC003C0943909F4E4C08BE6890F4A
:1004F000823018F0983C09F08EC06E0159EDC50E9F
:10050000D11CD6012D913C91A801420F531F4139B6
:10051000510520F0C852DF4F1882B1C05E01B8ED1E
:10052000AB0EB11CF5018081882309F415C1963901
:1005300029F0D70117969C919813A1C0FE01EB52A8
:10054000FF4F40815181F7018481958148175907F8
:1005500009F095C04E01FBED8F0E911CD4018D91D9
:100560009C91A801BE01615F7F4F820F931F0E9483
:10057000F521F60180819181080F191F11830083F5
:10058000D70116968C91863929F0F501808181502A
:10059000808373C0D5011C92F7018781FE01E95267
:1005A000FF4F8083833809F483C07E01FFECEF0E98
:1005B000F11CF701A081B181CE018A1B9B0B8B53EB
:1005C0009F4F80179107F8F032968AE001900D92C4
:1005D0008A95E1F7D7018D919C91F4016081718139
:1005E000D6014D915C910A960E94F521F601808119
:1005F00091810A96D7012D913C911197820F931FFB
:100600008D939C933AC08FA598A90E94800C8AA5CF
:1006100081608AA734C07E01BFECEB0EF11CF701AC
:10062000A081B181CE01C5969D01281B390BC9015E
:10063000800F911F8B39910510F5E85CF10988E076
:1006400001900D928A95E1F7D701ED91FC911197F8
:10065000118700878D919C91BE01615F7F4FA8013A
:100660000A960E94F521B2E0CB0ED11CF7018081E1
:100670009181C80ED91ED182C08281E06DC080E018
:100680006BC0933841F6DE01AF52BF4FFE01379683
:1006900088E001900D928A95E1F7FE01E552FF4F47
:1006A000CE010F9691838083C752DF4F1983088351
:1006B00082E052C0F7018781873008F02BCFFE011E
:1006C000EB52FF4F40815181D70114962D913C91FF
:1006D000159734976F014217530739F440815181C0
:1006E0002D913C914217530741F2F8E18F9FC001D1
:1006F0001124FE01E153FF4F20813181AE01421BE5
:10070000530B9A012B533F4F281739073CF48AA506
:1007100081608AA78FA598A90E94800CFE01379658
:1007200088E0D60101900D928A95E1F7FE01E5522D
:10073000FF4FBE01615F7F4FA801808191810E94C0
:10074000F521FE01E752FF4F11830083C852DF4FAE
:1007500088818150888391CFDF91CF911F910F9134
:10076000FF90EF90DF90CF90BF90AF909F908F90D1
:100770000895DC01ED91FC910084F185E02D40E0CD
:1007800009940F931F93CF938C01FC016483908590
:10079000C62FC90F6C2F6F70C8010E94B9036C2F50
:1007A00062956F706061C801CF911F910F910C9499
:1007B000B9030F931F93CF93DF931F92CDB7DEB78B
:1007C0008C01FC018681681728F4C80149830E94C6
:1007D000C1034981F80187818695869586954817DA
:1007E00058F44583642F606BC8010F90DF91CF915F
:1007F0001F910F910C94B9030F90DF91CF911F912E
:100800000F910895CF92DF92EF92FF920F931F9373
:10081000CF93DF93EC01F62EC42ED22E8F818695D6
:1008200086958695081710F00FEF080F1D2D0117FC
:1008300080F0412F6F2DCE010E94D903EF2CCE14F2
:1008400030F060E0CE010E943C02E394F8CF1F5FDD
:10085000EECF4D2D6F2DCE01DF91CF911F910F91D6
:10086000FF90EF90DF90CF900C94D9032F923F929E
:100870004F925F926F927F928F929F92AF92BF92B0
:10088000CF92DF92EF92FF920F931F93CF93DF935C
:10089000CDB7DEB727970FB6F894DEBF0FBECDBF3A
:1008A000DC011B960D911C911C970115110509F493
:1008B00062C19F838E83F801B49131964491319641
:1008C00054903196A491EA2EF12CF7E0EF0EF11C32
:1008D00023E0F594E7942A95E1F7EB82F80134964A
:1008E00074913196E491671758F0862F90E02E2F7F
:1008F00030E0F901E70FF11D8E179F070CF473C06C
:100900006D3069F4AE81BF8116968C91882309F40D
:1009100067C060E08E819F810E94C10361C06A3020
:1009200009F029C1EE81FF8181856581D62E8E9DDA
:10093000D00C11248781869586958695D81630F03F
:100940008285882319F082E08287D12C4D2D60E0CA
:100950008E819F810E94D903AE81BF811A968C91AE
:100960001A97823008F43CC015962C9115971B9667
:10097000ED91FC911C97309741F03396E4911996D4
:100980000C91E09FE02D112401C0E0E08FEF820F79
:100990000E2F10E0095F1F4F93E0159507959A956C
:1009A000E1F7080FEE81FF81468141506481CF015C
:1009B0000E940204AE81BF8119968C9119976D2D0A
:1009C0008E9D600D1124660F660F660F17968C9131
:1009D000861708F460E060648E819F810E94B903ED
:1009E00081E090E0CAC050E05B2BC8010696671B0F
:1009F000EE81FF81F185F9834230510588F4452B62
:100A000009F019825E9C90015F9C300D1124629F59
:100A10008001639F100D1124080F191F412C24C061
:100A2000EA2FE77021F048E0442E4E1A01C0412C15
:100A3000A82FFC0140E050E07E2F7A1B761728F4A7
:100A40007491470F511D3196F7CFFC01E60FF11D50
:100A500054904E9D80014F9D100D5E9D100D1124F0
:100A6000020F131F080F191FAE81BF811496BC918E
:100A7000BC83EE81FF813580652C712CCC24C3941E
:100A8000D12C812C912C7FEF7C0D7A838B81781770
:100A900008F05FC0212CAE81BF8119968C91281679
:100AA00008F051C07A81711102C0222051F0AE814C
:100AB000BF8115964C9115974F5F6C81CD010E94B7
:100AC000D903A12CB12CA51488F5F501E80DF91D69
:100AD000E00FF11F2491442061F0CE14DF0449F4AB
:100AE000E22FF0E0042C02C0F595E7950A94E2F7B6
:100AF0002E2FEE81FF818185823079F4E22F211043
:100B0000E295EF70F0E0EE59FE4F2491622F8E8156
:100B10009F812D830E943C022D81622F8E819F81B7
:100B20000E943C02FFEFAF1ABF0ACDCFB12C7981F2
:100B3000B71639F060E08E819F810E943C02B39429
:100B4000F6CF2394A8CF860C971CBFEFCB1ADB0AF5
:100B50009ACFAE81BF8117968C911797869586950F
:100B60008695381608F03CCF15963C921597632D64
:100B7000606BCD0133CF80E090E027960FB6F894FC
:100B8000DEBF0FBECDBFDF91CF911F910F91FF90C0
:100B9000EF90DF90CF90BF90AF909F908F907F901D
:100BA0006F905F904F903F902F9008950F93CF9349
:100BB000DF93EC010F8106950695069501504E8155
:100BC000415020E060E00E94020481E09A8591118A
:100BD00001C080E08A8760E4CE01DF91CF910F9160
:100BE0000C94B9038EE492E00E945B0C62E370E027
:100BF00080E090E00E9460180C94D1111F920F9237
:100C00000FB60F9211248F939F9381E080938D01F3
:100C100080918E0190918F01019690938F01809326
:100C20008E0180918E0190918F014E9714F4A895BA
:100C300002C00C9400009F918F910F900FBE0F90F7
:100C40001F901895DC01862F262F30E0F901EE5217
:100C5000FC4FE491F0E0EE0FFF1FEC5FFB4F45917E
:100C6000549113965C934E931297F901EA51FC4FFD
:100C7000E491EC93E0951196EC9361E00C941B18D1
:100C80008EBD00000DB407FEFDCF8EB508953F92D6
:100C90004F925F926F927F928F929F92AF92BF928C
:100CA000CF92DF92EF92FF920F931F93CF93DF9338
:100CB000EC019AA5892F827091FD17C0FE01E153C6
:100CC000FF4FAE014B5C5F4F90FD07C0208131812B
:100CD000241B350B2937310544F02081318142171F
:100CE000530708F429C19E7F9AA78E01095F1F4F01
:100CF000502EEE24E394F12C6E0181E9C81A8EEF98
:100D0000D80A74E2A72E79E0B72E8FA498A8F40130
:100D1000808191818F3F910511F480E00DC1F40134
:100D2000828193818F3F9105C1F367E1C4010E94E5
:100D3000000C982F9170792E80FDEFCF6FEFC401DA
:100D40000E94860B8FA498A8C4010E94830B80E6A2
:100D50000E9440068FEF0E944006682EC4010E9448
:100D6000800BF0E2F61508F056C062EEC4010E9456
:100D7000860B62E070E080E090E00E9460187CAA40
:100D800097E0971538F06AE070E080E090E00E940C
:100D90006018BBCF8FA498A8F4018781472C8715D2
:100DA00008F4482EF4019085911103C0382E3418B0
:100DB00001C0312CC4010E94830B81E60E944006D1
:100DC0003801450C461439F08FEF0E944006F301BC
:100DD00081933F01F7CF732C772029F08FEF0E948A
:100DE00040067A94F9CFC4010E94800B40E767E087
:100DF000C4010E94A50B69857A85CB01009769F033
:100E0000282F2770263008F080CF53E096958795DD
:100E10005A95E1F7F3CF762CB2CF8D852AA93BA95D
:100E200062177307E1F5823809F46FCF803881F4D7
:100E300064327940D1F0BA86A98642E064E279E072
:100E4000CE010E94C70E6AE070E080E090E040C0F2
:100E5000833C59F46115710541F078876F831A86D8
:100E6000198640E060E070E063C099A5992319F00D
:100E700087FF0CC002C0813C49F49CE6980F933078
:100E800028F0883C19F0833809F056C0B801CE012B
:100E90000E945502823009F038CF83E84DC060349B
:100EA000710509F044C0823CC9F48AA583FD2DCFA9
:100EB000243289E0380709F428CF8F8198859A87F2
:100EC000898738872F83F601608170E080E090E0A9
:100ED0000E94601869857A8542E02AC0B801CE0177
:100EE0000E945502982E88818823E9F029A922239F
:100EF00079F030E021503109C901880F991F280F7E
:100F0000391FB70102C0660F771F2A95E2F702C0AA
:100F100060E070E083E0660F771F8A95E1F744E0B8
:100F2000CE010E94C70EF2E09F12EFCEB6CF41E095
:100F3000CE010E94C70EE9CEDF91CF911F910F9194
:100F4000FF90EF90DF90CF90BF90AF909F908F90E9
:100F50007F906F905F904F903F9008952F923F92B7
:100F60004F925F926F927F928F929F92AF92BF92B9
:100F7000CF92DF92EF92FF920F931F93CF93DF9365
:100F8000EC017B015A01690148010E949A184BA4A7
:100F90005CA46DA47EA4DC01CB0184199509A6098B
:100FA000B7094997A105B10528F4CE010E9447066B
:100FB00087FFEBCF8CE891E00197F1F789E1C81644
:100FC000D104B0F488E08C0D8CAB84019601A501AE
:100FD000B701CE010E94890F182F882311F011E06C
:100FE00092C00E949A186BA77CA78DA79EA78BC062
:100FF000E1E9CE16D10408F085C0C60168E170E0D1
:101000000E94952021E0892B09F420E0C60168E1C7
:1010100070E00E949520722E760EF70182819381F6
:101020008034910539F08AA584608AA78FA598A994
:101030000E94800CF7014680512C612C84E9282EF7
:1010400096E9392EF7017782F1E07F1204C0F701AB
:101050003682478208C0611003C0F701268203C0B0
:1010600085E9F7018683E8E16E9EA00111249601CF
:10107000241B350B2931310510F028E130E088E0E0
:10108000820F8CAB4A0D5B1D8401B701CE010E941B
:10109000890F182F81110BC062E070E080E090E0B2
:1010A0000E9460185394F2E0F51560F606C07A9439
:1010B0006394772011F0512CC5CFF70146828AA5A1
:1010C00082FF12C049815A816B817C818FA598A9CA
:1010D0000E942417182F8FA598A90E94B50C60E0D4
:1010E0008FA598A90E94E2158AA58B7F8AA7112354
:1010F00049F0772009F473CF0E949A186BA77CA758
:101100008DA79EA710E0812FDF91CF911F910F91A6
:10111000FF90EF90DF90CF90BF90AF909F908F9017
:101120007F906F905F904F903F902F900895CF9257
:10113000DF92EF92FF920F931F93CF93DF93CDB780
:10114000DEB728970FB6F894DEBF0FBECDBF7C0187
:10115000162F6A01809136029091370284329940AD
:1011600039F10E949A1880913602909137028432A8
:101170009940F1F01C821B82E0911401F09115015D
:10118000CF0101969093150180931401FE83ED83A6
:101190001F8308E310E09601A701BE016F5F7F4F38
:1011A00080913E0290913F020E94AE07811110C0D3
:1011B00084E0F82E92E8E92EFA94FF2009F442C068
:1011C00080913602909137028432994021F43AC0DE
:1011D00081E090E041C00E947E1367E180913C0273
:1011E00090913D020E94000C81FD34C080913E022E
:1011F00090913F02FC0122A520FD2CC01C821B8285
:101200002091140130911501A9014F5F5F4F509358
:101210001501409314013E832D83EF8208E310E013
:1012200020E030E040E050E0BE016F5F7F4F0E9461
:10123000AE0781110FC067E670E080E090E00E9489
:101240006018BACF80913C0290913D020E94800CC0
:101250000E94D11180E090E028960FB6F894DEBF8E
:101260000FBECDBFDF91CF911F910F91FF90EF90F7
:10127000DF90CF9008958F929F92AF92BF92CF92BE
:10128000DF92EF92FF920F931F93CF93DF93CDB72F
:10129000DEB762970FB6F894DEBF0FBECDBF809168
:1012A0008102909182020E944F0B40E06CEC809191
:1012B0008102909182020E94621140917B0264E45B
:1012C00080918102909182020E94621180917D0240
:1012D0008823D9F1E0917C02E950E33040F4F0E05A
:1012E000EE0FFF1FE45EFE4F0081118102C00EEE83
:1012F00012E080917E02882311F180917B0281119E
:101300001EC00E949A184B015C016801110FEE0883
:10131000FF0880918102909182020E94FC0A813034
:10132000A1F00E949A18DC01CB018C199D09AE092D
:10133000BF0988159905AA05BB0558F306C0B80171
:10134000110F880B990B0E94601868EE73E080E023
:1013500090E00E946018E0918102F0918202138671
:1013600015861486DF011B96CF0103961E92A817DF
:10137000B907E1F7BE01655F7F4FCF010E94E2141C
:10138000882349F067E0CE010B960E944B119A89A1
:10139000891709F43FC060E070E08EEF92EC609333
:1013A00088017093890180938A0190938B018E014B
:1013B0000F5F1F4F24E044E00E94081DF801A4E0E5
:1013C000B1E0CE01069621912D93E817F907D9F7E0
:1013D0008AE090E090930C0180930B014BE050E089
:1013E0006EE480E091E00E949708892B09F06CC0C0
:1013F00064EF71E080E090E00E94601880910B0142
:1014000090910C01019790930C0180930B01892B13
:1014100029F75AC080918102909182020E944F0B5D
:101420008823F1F1BE016F5F7F4FCE010B960E94C2
:1014300096148823A9F168E0CE0101960E944B1111
:10144000998589132DC0698148E0649FB0011124FA
:101450008A81282F30E0322F2227330F330F330FAA
:10146000262B372B8B858031C9F4688570E08F81FE
:10147000AB01481B5109CA019695982F882797956B
:1014800087950E94A92060517109207F53E0220FA7
:10149000331F5A95E1F7620F731F04C0B90102C0F0
:1014A00060E874EE613854EE75070CF474CF072EC3
:1014B000000C880B990B0E94901F20E030E040E068
:1014C0005CE30E94CB1F6BCF62960FB6F894DEBF31
:1014D0000FBECDBFDF91CF911F910F91FF90EF9085
:1014E000DF90CF90BF90AF909F908F900895CF9353
:1014F000DF93EC01862FF894EB89FC89208144234B
:1015000019F09989922B02C09A899223908378943A
:1015100090E59CBD91E09DBDF894EF85F889208110
:101520009E859223908378940E944006F894EF85DC
:10153000F88990818D85892B80837894DF91CF9174
:101540000895CF93DF93DC01FB01EC01C359DE4F1B
:10155000688179812296988182814081518182308F
:1015600028F0BA0181E0838390E027C0ED01C059E3
:10157000DE4F28813981EA01C223D323D2960D9010
:10158000BC91A02DCA17DB07C1F4C90180959095C5
:1015900063E0880F991F6A95E1F784239523892BCF
:1015A00051F083E0220F331F8A95E1F72760BA01DB
:1015B0006223732301C0BA0195E071836083928333
:1015C00081E0DF91CF910895CF93DF93EC019CB53B
:1015D0009F7D9CBD9CB5937F9CBD9CB59C7F9CBD15
:1015E0009DB591609DBD8A810E94EB178C899D8974
:1015F000DF91CF910C945718FC0190810180F2810A
:10160000E02DF8948181892B81832281892F809517
:1016100028232283A2E0B0E01197F1F721818223F1
:101620008183A0E1B0E01197F1F780817894E6E63C
:10163000F0E03197F1F7982381E009F480E0089514
:10164000FC0190810180F281E02D892F809560FF5F
:1016500012C0F8942281822382838181892B818325
:10166000A0E1B0E01197F1F78281982B92837894F2
:101670008AE690E011C0F8942281822382838181DE
:10168000892B8183AEE7B0E01197F1F78281982B27
:101690009283789486E090E00197F1F70895FC0139
:1016A00090810180F281E02DF8948181292F20958D
:1016B0008223818378948DE7815009F13081392329
:1016C000D9F3F8948281822382838181892B81835B
:1016D0007894ACEBB3E01197F1F7F894818128236B
:1016E0002183A8E8B0E01197F1F78081982381E089
:1016F00009F080E07894E0E3F3E03197F1F70895A2
:1017000061E00C94E40A60E00C94E40AEF92FF922A
:101710001F93CF93DF931F92CDB7DEB77C01698310
:101720000E94830B6981862F0E944006182FC701F3
:101730000E94800B812F0F90DF91CF911F91FF901E
:10174000EF90089561EE0C94860BEF92FF921F9339
:10175000CF93DF9300D0CDB7DEB77C014A83698396
:101760000E94830B6981862F8F7180620E944006E0
:10177000182F4A81842F0E944006C7010E94800BC7
:10178000812F0F900F90DF91CF911F91FF90EF90DD
:101790000895CF92DF92EF92FF920F931F93CF9312
:1017A000DF9300D01F92CDB7DEB77C01142F2A83C0
:1017B0005B8369830E94830B6981862F8F718062AE
:1017C0000E944006082FC12E5B81D52E2A81120F60
:1017D0001C1531F0F60181916F010E944006F8CF8F
:1017E000C7010E94800B802F0F900F900F90DF9108
:1017F000CF911F910F91FF90EF90DF90CF900895C0
:10180000EF92FF921F93CF93DF931F92CDB7DEB776
:101810007C0169830E94830B6981862F8F710E94EE
:1018200040068FEF0E944006182FC7010E94800BD0
:10183000812F0F90DF91CF911F91FF90EF9008952E
:10184000EF92FF920F931F93CF938C017B0166E081
:101850000E94000CC82FC77D82E0E816F10431F425
:10186000C0628BE990E0A0E0B0E00DC0EA94EF2800
:1018700029F085E590E0A0E0B0E005C0C86081E413
:1018800090E0A0E0B0E0F801808B918BA28BB38B4D
:101890004C2F66E0C8010E94A50B66E0C8010E94BB
:1018A000000C91E08C1390E0892FCF911F910F9144
:1018B000FF90EF900895CF93DF93EC0160E00E94DA
:1018C000000C81FD0EC0482F426060E0CE010E94F6
:1018D000A50B65E070E080E090E0DF91CF910C9483
:1018E0006018DF91CF910895FC01208131818281C0
:1018F00093812817390719F0822F0C94EB1708955C
:10190000CF93DF93EC0160E00E94740C8889998981
:101910000E9457186DE1CE010E94000C81FF07C0A4
:10192000888999890E945718CE010E94A20B60E015
:10193000CE010E94000C482F4E7F60E0CE010E9435
:10194000A50B62E0CE010E94000CE6EBF3E0E4910F
:1019500041E050E001C0440FEA95EAF7482B62E00D
:10196000CE01DF91CF910C94A50BCF93DF93EC01C7
:101970000E945B0C60E0CE010E94000C482F416089
:1019800060E0CE010E94A50B40E767E0CE010E9417
:10199000A50B61E0CE010E94740C8985882349F073
:1019A0002E85AE01475F5F4F6AE0CE010E94C90BF2
:1019B00014C062E0CE010E94000CE6EBF3E0E4917B
:1019C00021E030E001C0220FEA95EAF72095422F8E
:1019D000482362E0CE010E94A50B6DE1CE010E947A
:1019E000000C81FF05C0CE01DF91CF910C94A20BBA
:1019F000DF91CF9108951F93CF93DF93EC018881FE
:101A000099812A813B818217930719F061E00E9436
:101A10001B188A819B81288139812817390719F081
:101A200061E00E941B181FB7F89480918C0181110E
:101A300027C0ECEDF3E08491E0EFF3E09491E82F20
:101A4000F0E0EE0FFF1FE650FC4FA591B491EC9132
:101A5000E92321F461E08AE00E94EB1761E08AE06B
:101A60000E941B188CB580618CBD8CB580648CBDC8
:101A700061E08DE00E941B1861E08BE00E941B1862
:101A800080918C018F5F80938C011FBF60E0CE013D
:101A90000E94740C61E0CE010E94E40A65E070E0EF
:101AA00080E090E00E9460184CE060E0CE010E946F
:101AB000A50B4FE564E0CE010E94A50B62E070E04B
:101AC000CE010E94200C882311F081E08E8366E015
:101AD000CE010E94000C182F60E070E0CE010E9441
:101AE000200CCE010E94830B80E50E94400683E714
:101AF0000E944006CE010E94800B40E06DE1CE01C5
:101B00000E94A50B40E06CE1CE010E94A50B188657
:101B100040E767E0CE010E94A50B4CE465E0CE01F2
:101B20000E94A50B62EECE010E94860BCE010E94A0
:101B3000A20BCE010E945B0C60E0CE010E94000C63
:101B4000482F4E7F60E0CE010E94A50B115081E02E
:101B50001E3F08F080E0DF91CF911F910895CF9351
:101B6000DF93CDB7DEB728970FB6F894DEBF0FBE70
:101B7000CDBFAC019CEC99839A839B839C839D830E
:101B80001E821F8218869A01E1E021153105C9F0F5
:101B9000611103C04115510569F4D901A770BB2734
:101BA000AE5DBE4F8C91A1E0B0E0AC0FBD1FAE0F9B
:101BB000B11D8C9383E0369527958A95E1F7EF5F09
:101BC000E4CF611102C0452B39F4E62FF0E0EE5D61
:101BD000FE4F8081898305C0F0E0EF5DFE4F80817C
:101BE0008A8329813A814B815C816D817E818F81DD
:101BF000988528960FB6F894DEBF0FBECDBFDF9153
:101C0000CF9108956F927F928F929F92AF92BF92E1
:101C1000CF92DF92EF92FF920F931F93CF93DF93B8
:101C2000CDB7DEB728970FB6F894DEBF0FBECDBF95
:101C30008C01CB01D22E642F0E94AF0D39014A01D5
:101C40005B017C01F80182A582FD04C087A590A9F3
:101C50000E94800CF80187A590A9DD2011F060E0BA
:101C600001C061E00E94E215F801C7A4D0A8698212
:101C70007A828B829C82AD82BE82EF82F886F601E8
:101C80002685AE014F5F5F4F6AE0C6010E94C90B17
:101C9000F6012685AE014F5F5F4F60E1C6010E94ED
:101CA000C90BF601478161E1C6010E94A50BF8014D
:101CB000B4A8C7A4D0A86FEFC6010E94860B80FF0E
:101CC0000DC06FEFC6010E94860B84FFF4CF40E188
:101CD00067E0C6010E94A50BF12C30C0F601F78029
:101CE000EF2CBF1408F4EB2CF6018085811102C0A3
:101CF000FE1801C0F12CC6010E94830B80EA0E94ED
:101D000040065801F7E0AF0EB11CEA0CEA1431F0BE
:101D1000F50181915F010E944006F8CFFF2029F074
:101D200080E00E944006FA94F9CFC6010E94800B21
:101D300061E0C6010E94740CFF24F394F80182A5AF
:101D400082FD0FC0418152816381748187A590A972
:101D50000E942417F82E60E0F80187A590A90E9440
:101D6000E2158F2D28960FB6F894DEBF0FBECDBFBB
:101D7000DF91CF911F910F91FF90EF90DF90CF9067
:101D8000BF90AF909F908F907F906F900895CF926B
:101D9000DF92EF92FF920F931F93CF93DF9300D0C8
:101DA00000D0CDB7DEB7FC0195859B01211531052B
:101DB00061F0822F8770863030F483E03695279566
:101DC0008A95E1F7F3CF80E097C09154EE24E39435
:101DD0009F3708F0E12CF42E6B018F0119821A82D3
:101DE0001B821C827A8369834B83BE016F5F7F4FA6
:101DF000CF010E94A10A69817A812C814B81C8019F
:101E00000E94020EF1E0FF1227C0811102C0F12CE6
:101E10006AC089819A818C159D0501F5EE20F1F04B
:101E200081ECF801858787819085928781879A83E5
:101E30008983FB821C82BE016F5F7F4FC8010E94B5
:101E4000A10A88E0F80184AB69817A812C814B81F9
:101E5000C8010E94020E02C08823C9F289819A81BA
:101E60008C159D0519F4FF24F3943DC0FF2019F053
:101E7000F3E0FF12F8CFEE20B1F3F80182A582FF64
:101E800011C0418152816381748187A590A90E940C
:101E90002417F80182A58B7F82A760E087A590A90F
:101EA0000E94E215F80187A590A90E94B50C0E9436
:101EB0009A186B017C01C8010E944706813C99F287
:101EC0000E949A18AB01BC014C195D096E097F098B
:101ED000F80185819681A0E0B0E084179507A607F8
:101EE000B70748F794CFF80182A582FD04C087A503
:101EF00090A90E94B50C8F2D0F900F900F900F900E
:101F0000DF91CF911F910F91FF90EF90DF90CF90D5
:101F10000895EF92FF920F931F93CF93DF93EC01FD
:101F20007B01BA018AA99BA9F70191838083DE0115
:101F3000179688E001900D928A95E1F721153105F9
:101F400029F0A901CE010F960E94F521F7016281C7
:101F500073810833110561F06034710511F444E0B8
:101F600001C043E06017710709F442E0B80101C005
:101F700040E0CE01DF91CF911F910F91FF90EF9044
:101F80000C94C70ECF92DF92EF92FF920F931F93A4
:101F9000CF93DF936C017A018B01C0E0D0E0CE15C6
:101FA000DF0589F0D8016D918D01D601ED91FC918D
:101FB0000190F081E02DC6010995892B11F47E0175
:101FC00002C02196ECCFC701DF91CF911F910F91F5
:101FD000FF90EF90DF90CF900895FC01538D448DDA
:101FE000252F30E0842F90E0821B930B541710F0C4
:101FF000CF96089501970895FC01918D828D9817D1
:1020000061F0828DDF01A80FB11D5D968C91928DDC
:102010009F5F9F73928F90E008958FEF9FEF0895D9
:10202000FC01918D828D981731F0828DE80FF11DA2
:10203000858D90E008958FEF9FEF0895FC01918DBD
:10204000228D892F90E0805C9F4F821B91098F73B6
:102050009927089589E991E00E941E1021E0892BBB
:1020600009F420E0822F0895FC01848DDF01A80F80
:10207000B11DA35ABF4F2C91848D90E001968F73B0
:102080009927848FA689B7892C93A089B1898C91CF
:1020900080648C93938D848D981306C00288F38995
:1020A000E02D80818F7D80830895EF92FF920F93C2
:1020B0001F93CF93DF93EC0181E0888F9B8D8C8DF4
:1020C000981305C0E889F989808185FD24C0F62E22
:1020D0000B8D10E00F5F1F4F0F731127E02E8C8DBB
:1020E000E8120CC00FB607FCFACFE889F9898081A5
:1020F00085FFF5CFCE010E943410F1CF8B8DFE010C
:10210000E80FF11DE35AFF4FF0820B8FEA89FB893C
:102110008081806207C0EE89FF896083E889F98940
:1021200080818064808381E090E0DF91CF911F9176
:102130000F91FF90EF900895CF93DF93EC01888D7E
:102140008823C9F0EA89FB89808185FD05C0A889BB
:10215000B9898C9186FD0FC00FB607FCF5CF808141
:1021600085FFF2CFA889B9898C9185FFEDCFCE018B
:102170000E943410E7CFDF91CF91089580E090E086
:10218000892B29F00E942A1081110C9400000895D7
:102190000E94F0216115710579F0FB01019000208A
:1021A000E9F73197AF01461B570BDC01ED91FC912C
:1021B0000280F381E02D099480E090E008950F9370
:1021C0001F93CF93DF93EC010E94CA108C0169E446
:1021D00071E0CE010E94CA10800F911FDF91CF9154
:1021E0001F910F9108951F920F920FB60F92112415
:1021F0002F933F934F935F936F937F938F939F930F
:10220000AF93BF93EF93FF9389E991E00E9434105D
:10221000FF91EF91BF91AF919F918F917F916F91BE
:102220005F914F913F912F910F900FBE0F901F9094
:1022300018951F920F920FB60F9211242F938F9320
:102240009F93EF93FF93E091A901F091AA01808100
:10225000E091AF01F091B00182FD12C090818091B8
:10226000B2018F5F8F732091B301821751F0E0911B
:10227000B201F0E0E756FE4F958F8093B20101C0A6
:102280008081FF91EF919F918F912F910F900FBEC1
:102290000F901F901895DC0180E0615090F09D91A7
:1022A0009827E92FEF70F0E0E557FE4F24919295C3
:1022B0009F70E92FF0E0E556FE4FE4918E2F8227C4
:1022C000ECCF0895CF92DF92EF92FF920F931F937E
:1022D000CF93DF931F92CDB7DEB76C01E62E08E0F7
:1022E00010E0FF24F39461E08F2D8E2109F460E06B
:1022F000C60149830E94200BFF0C0150110949813E
:102300000115110581F7411115C0F894D6011196F8
:10231000ED91FC91129791818C9180958923818315
:102320001196ED91FC91129792818C918095892361
:10233000828378940F90DF91CF911F910F91FF903E
:10234000EF90DF90CF900895CF92DF92EF92FF92BF
:102350000F931F93CF93DF931F92CDB7DEB78C01FE
:10236000F62E40E065E579830E946211CF2C7981D9
:10237000D72E760188E0E80EF11CF60161916F011D
:1023800040E0C8010E946211CE14DF04B1F70F9043
:10239000DF91CF911F910F91FF90EF90DF90CF9041
:1023A00008952F923F924F925F926F927F928F92F9
:1023B0009F92AF92BF92CF92DF92EF92FF920F93D4
:1023C0001F93CF93DF93CDB7DEB761970FB6F89425
:1023D000DEBF0FBECDBF67E180913C0290913D0210
:1023E0000E94000C80FD03C080E090E06EC18091EF
:1023F0003C0290913D020E94800CE0913E02F091DF
:102400003F0282A5826082A76AE070E080E090E0EF
:102410000E94601864E279E080913E0290913F0250
:102420000E94F71584E299E0909337028093360278
:102430000E949A182B013C01C12CE12C90E4292E1A
:10244000312C3C862B8680911401909115019C01C2
:102450002F5F3F4F30931501209314019E878D8786
:1024600082EC8F8780913E0290913F02FC0122A96D
:1024700033A93A872987EE2089F02E2D30E02150AC
:102480003109A901440F551F240F351F01E010E049
:1024900002C0000F111F2A95E2F702C000E010E011
:1024A00020E030E040E050E0BE01675F7F4F0E94D7
:1024B000AE070E949A184B015C01F12C80913E02FC
:1024C00090913F020E944706823C89F4FE013196BA
:1024D000EF0DF11DEF0DF11DA0913E02B0913F02F5
:1024E00017968D919C91189791838083F3940E9405
:1024F0009A18DC01CB0188199909AA09BB09C89768
:10250000A105B10520F4F3E0FF15C0F633C0F110CA
:1025100031C00E949A18DC01CB0184199509A609E3
:10252000B70981369A4EA105B10508F05DCF2C2D73
:1025300030E02F5F3F4F8E2D90E00196289FB00135
:10254000299F700D389F700D1124675E7F4F660FB5
:10255000771F072E000C880B990B0E94601881E0F2
:102560008E0D8370E82E81E08C0D6AE00E94892038
:10257000C92E67CFD12C198ADF1408F03FC023EC95
:102580002F8780913802888BFE013196ED0DF11D69
:10259000ED0DF11D008111811C870B8720E030E0DB
:1025A00040E050E0BE01675F7F4F80913E02909116
:1025B0003F020E94AE070E949A184B015C010E94E4
:1025C0009A18DC01CB0188199909AA09BB09813E37
:1025D0009105A105B10550F480913E0290913F0212
:1025E0000E944706898B803851F7DF2C65E070E048
:1025F00080E090E00E946018D394BECF8989803833
:1026000009F087CFE0913E02F0913F0287859089E3
:10261000009709F47ECF368520913802321379CFA6
:10262000909337028093360280913C0290913D0254
:102630000E94800C6AE070E080E090E00E946018E8
:10264000609136027091370280913E0290913F0274
:102650000E94F7151C861B86E1E8EF8787E0F82EBD
:1026600008E310E020E030E040E050E0BE01675FAA
:102670007F4F80913E0290913F020E94AE078111F0
:1026800019C0FA94F1100FC064E279E080913E0223
:1026900090913F020E94F71584E299E090933702EF
:1026A0008093360236CF63E070E080E090E00E94D5
:1026B0006018D6CFE0913E02F0913F0282A58D7F57
:1026C00082A7809136029091370261960FB6F894F6
:1026D000DEBF0FBECDBFDF91CF911F910F91FF9055
:1026E000EF90DF90CF90BF90AF909F908F907F90B2
:1026F0006F905F904F903F902F9008958F929F9290
:10270000AF92BF92DF92EF92FF920F931F93CF93FE
:10271000DF93CDB7DEB72A970FB6F894DEBF0FBEB2
:10272000CDBF80913E0290913F020E944706D82E75
:102730008091360290913702843229E0920709F4A1
:10274000E2C033ECD31203C021E020934002209179
:1027500038022111D8C02D2D2D7F243C09F0B0C0A6
:10276000E0913E02F0913F027F01A7E0EA0EF11CEA
:1027700027813085328721872785B4ECDB1228C07A
:1027800040913B028091390290913A0230E0341737
:1027900089F05C010396BC0163507109DB015C9117
:1027A000521306C0D50111968D919C91129704C0C9
:1027B0003F5FEDCF8FEF9FEF9A83898308E310E0AF
:1027C00022E030E0AE014F5F5F4FB701CF0175C02F
:1027D00030E03A8729872115310509F45EC0892B3D
:1027E000C1F450913B028091390290913A0240E04D
:1027F000451709F44FC0FC010396DC0112976D9157
:102800007C916217730719F4208130E048C04F5F54
:10281000EFCF1C821B8280911401909115019C01C5
:102820002F5F3F4F30931501209314019E838D83BA
:1028300086EC8F8308E310E022E030E0AE01475FD2
:102840005F4FBE016F5F7F4FCF010E94AE078823AD
:1028500009F10E949A184B015C0180913E0290910F
:102860003F020E944706863C71F00E949A18DC01E4
:10287000CB0188199909AA09BB09853F9140A10597
:10288000B10558F307C0E0913E02F0913F02278561
:10289000308905C02FEF3FEF02C020E030E03A83DF
:1028A000298308E310E022E030E0AE014F5F5F4F84
:1028B000B70180913E0290913F020E94AE0723C073
:1028C00035ECD31220C0A0913E02B0913F0220917E
:1028D000390230913A0280E090913B02891798F4D6
:1028E000F90193E0899FE00DF11D1124618172814E
:1028F00017964D915C9118976417750711F4128221
:1029000011828F5FE9CF8D2D2A960FB6F894DEBF26
:102910000FBECDBFDF91CF911F910F91FF90EF9030
:10292000DF90BF90AF909F908F900895AF92BF922D
:10293000CF92DF92EF92FF920F931F93CF93DF938B
:102940008B01BC0180918102909182020E94A411AE
:1029500040E06EEB80918102909182020E946211B0
:10296000E801680189E0C80ED11CA0908102B090F6
:10297000820288E0E82EF12C01E010E0C5010E94FF
:10298000FC0A8111102B000F81E0E81AF108B1F761
:102990001993CC15DD0549F780918102909182024F
:1029A0000E944F0B91E0813009F090E0892FDF9178
:1029B000CF911F910F91FF90EF90DF90CF90BF903C
:1029C000AF900895AF92BF92CF92DF92EF92FF92B5
:1029D0000F931F93CF93DF931F92CDB7DEB75C01A8
:1029E000D62EE72EFC018585811105C0C5010E9408
:1029F0004F0B811106C0F50113861586148680E001
:102A000065C040E060EFC5010E94621101E0F12C59
:102A1000C12C11E0C5010E94FC0A682FC501698321
:102A20000E94FC0A6981613019F48130B9F433C025
:102A30004F2D50E068131BC0F5018385181730F443
:102A4000E40FF51F8381802349F402C0181731F089
:102A500060E0193058F4F501148708C0F501EF0D56
:102A6000F11D8381802B838361E009C0C12EF501B4
:102A7000E40FF51F9381802F809589238383C501FF
:102A80000E94200B1F5F000F11F4F39401E0F7E0A8
:102A9000FF1508F0BFCF113408F4ADCFF501C386A0
:102AA000C11002C081E08587F5018381882309F484
:102AB000A2CFD5011396ED2DFE2D9501255F3F4F39
:102AC0008D918193A217B307D9F781E00F90DF9121
:102AD000CF911F910F91FF90EF90DF90CF90BF901B
:102AE000AF9008950F931F93CF93DF93CDB7DEB7C9
:102AF00029970FB6F894DEBF0FBECDBFFC01208131
:102B0000203161F18C0180918102909182020E94BA
:102B10004F0B882309F1BE016F5F7F4FC8010E94F0
:102B200096148823C9F068E0CE0101960E944B11EB
:102B30009985891311C08D818F3361F020F48F3115
:102B400059F489E00CC08F3519F08F3739F004C083
:102B50008BE005C08AE003C080E001C08CE02996CC
:102B60000FB6F894DEBF0FBECDBFDF91CF911F919E
:102B70000F9108950F931F93CF93DF938C01C0E0C3
:102B8000D0E0F801EC0FFD1F6491662371F0E09135
:102B90009901F0919A010190F081E02D89E991E08D
:102BA0000995892B11F02196ECCF69E471E089E950
:102BB00091E00E94CA108C0F9D1FDF91CF911F9151
:102BC0000F9108951F93CF93DF93EC01162F61E0CF
:102BD0000E94000C482F112311F0416001C04E7F6C
:102BE00061E0CE01DF91CF911F910C94A50B7F92F4
:102BF0008F929F92AF92BF92CF92DF92EF92FF920D
:102C00000F931F93CF93DF93CDB7DEB728970FB6FF
:102C1000F894DEBF0FBECDBFFC019B01211531052D
:102C200059F0822F8770863008F0FAC0A3E03695FD
:102C30002795AA95E1F7F2CF62AB73AB87A590A970
:102C4000DC012D913C912F3F310509F4E9C0DC01F5
:102C500012962D913C9113972F3F310509F4E0C056
:102C6000E72EF62E8F0160E00E94E215F801C7A45E
:102C7000D0A86DE1C6010E94000C482F44606DE1B0
:102C8000C6010E94A50B6CE1C6010E94000C482FF2
:102C90004F636CE1C6010E94A50B81E0D601189636
:102CA0008C93F80182A993A966E070E00E949520B8
:102CB000482F440F4B5FF0E14F9FA0011124456066
:102CC00064E0D8019F968D919C91D0970E94A50BAE
:102CD00089E190E0A0E0B0E0F80181839283A383D2
:102CE000B4838BE490E09683858382A993A940E026
:102CF0002FEF3FEFB90168237923672B39F073E099
:102D0000220F331F7A95E1F74F5FF4CFF80141AB03
:102D100020953095E059FE4F3183208363E036954E
:102D200027956A95E1F73397A901482359235183E1
:102D300040832115310559F043E0969587954A95D2
:102D4000E1F753E0369527955A95E1F7F2CFF80170
:102D5000E159FE4F808386E0782E88248394912C5D
:102D60007A94FFEF7F1609F454C0672D8F2D9E2DA6
:102D70000E94AF0DD8019F96CD90DC90D09729830B
:102D80003A834B835C836D837E838F839887A72CE4
:102D9000B12C71100BC0F601468550E0BE016F5F8B
:102DA0007F4FC60109960E94F52103C0F1E07F1212
:102DB00008C0F501EE53FC4F6491D6011E962C918C
:102DC00005C0F501EE53FC4F649121E0AE014F5F69
:102DD0005F4FC6010E94C90BF501E454FC4F64919A
:102DE000F6014781C6010E94A50B62E0C6010E9460
:102DF000000CF501EA54FC4FE491940101C0220F4C
:102E0000EA95EAF7482F422B62E0C6010E94A50B23
:102E1000A7CFD8019F968D919C91D0970E94B50C19
:102E200028960FB6F894DEBF0FBECDBFDF91CF91CD
:102E30001F910F91FF90EF90DF90CF90BF90AF90D8
:102E40009F908F907F9008958F929F92AF92BF92A4
:102E5000CF92DF92EF92FF92CF93DF93EC014A0182
:102E60005B010E949A186B017C0167E1CE010E9410
:102E7000000C84FD29C06FEFCE010E94860B84FFF9
:102E8000F4CF40E167E0CE010E94A50B60E0CE01E7
:102E90000E94740C61E0CE010E94740C0E949A188A
:102EA000DC01CB018C199D09AE09BF098815990574
:102EB000AA05BB05D0F260E0CE010E94740CCE01E1
:102EC0000E94A20B80E005C060E0CE010E94740C5D
:102ED00081E0DF91CF91FF90EF90DF90CF90BF9096
:102EE000AF909F908F900895833081F028F48130C7
:102EF00099F08230A1F008958730A9F08830B9F0B8
:102F00008430D1F4809180008F7D03C08091800057
:102F10008F7780938000089584B58F7702C084B541
:102F20008F7D84BD08958091B0008F7703C080911C
:102F3000B0008F7D8093B00008953FB7F8948091E2
:102F4000140490911504A0911604B091170426B5AD
:102F5000A89B05C02F3F19F00196A11DB11D3FBFD1
:102F6000BA2FA92F982F8827820F911DA11DB11D5F
:102F7000BC01CD0143E0660F771F881F991F4A955A
:102F8000D1F70895CF93DF93282F30E0F901E25F66
:102F9000FB4F8491F901EA51FC4FD491F901EE52B3
:102FA000FC4FC491CC2391F081110E947417EC2F37
:102FB000F0E0EE0FFF1FE853FC4FA591B491EC91A8
:102FC000ED2381E090E021F480E002C080E090E019
:102FD000DF91CF9108951F93CF93DF93282F30E097
:102FE000F901E25FFB4F8491F901EA51FC4FD49162
:102FF000F901EE52FC4FC491CC23C9F0162F811178
:103000000E947417EC2FF0E0EE0FFF1FEC5FFB4FF8
:10301000A591B4918FB7F894111105C09C91ED2F33
:10302000E095E92302C0EC91ED2BEC938FBFDF918B
:10303000CF911F910895CF93DF9390E0FC01EA5167
:10304000FC4F2491FC01EE52FC4F8491882361F1E6
:1030500090E0880F991FFC01E650FC4FC591D49178
:10306000FC01EC5FFB4FA591B491611109C09FB7C2
:10307000F8948881209582238883EC912E230BC0BD
:10308000623061F49FB7F8943881822F8095832352
:103090008883EC912E2B2C939FBF06C08FB7F8949A
:1030A000E8812E2B28838FBFDF91CF910895833045
:1030B000910528F0880F991F04970197F1F708955B
:1030C0008F929F92AF92BF92CF92DF92EF92FF9238
:1030D0006B017C010E949D174B015C01C114D1045E
:1030E000E104F104F1F00E949D17DC01CB01881985
:1030F0009909AA09BB09883E9340A105B10570F35F
:1031000021E0C21AD108E108F10888EE880E83E0B8
:10311000981EA11CB11CC114D104E104F10419F7DB
:10312000DDCFFF90EF90DF90CF90BF90AF909F905A
:103130008F9008952FB7F894609110047091110446
:1031400080911204909113042FBF08951F920F9243
:103150000FB60F9211242F933F938F939F93AF93AA
:10316000BF938091100490911104A0911204B0912A
:10317000130430910F0426E0230F2D3720F402961C
:10318000A11DB11D05C029E8230F0396A11DB11D86
:1031900020930F048093100490931104A0931204C1
:1031A000B09313048091140490911504A091160417
:1031B000B09117040196A11DB11D80931404909342
:1031C0001504A0931604B0931704BF91AF919F917B
:1031D0008F913F912F910F900FBE0F901F901895D8
:1031E000CF93DF93CDB7DEB728970FB6F894DEBF45
:1031F0000FBECDBF789484B5826084BD84B58160F4
:1032000084BD85B5826085BD85B5816085BD8091B1
:103210006E00816080936E00109281008091810029
:103220008260809381008091810081608093810021
:10323000809180008160809380008091B1008460E3
:103240008093B1008091B00081608093B000809144
:103250007A00846080937A0080917A008260809303
:103260007A0080917A008E7F80937A0080917A0034
:10327000806880937A001092C10088E1809360009A
:1032800081E28093600080916000806480936000A0
:1032900080917A008F7780937A008AB183618AB9AE
:1032A00087B18F6387B9219A83B7846083BF83B75F
:1032B000816083BF60E083E00E941B188EE492E08F
:1032C0000E94FB0C66E08EE492E00E94000C887F76
:1032D000482F456066E08EE492E00E94A50B62E014
:1032E00070E08EE492E00E94200C61E088E00E9491
:1032F0001B1860E088E00E94EB176AE070E080E055
:1033000090E00E94601861E088E00E94EB176AE09C
:1033100070E080E090E00E94601867E083E792E050
:103320000E94220666E087E792E00E9422062A9A1F
:10333000229A239A259A10926A0210926B02E0EB6D
:10334000F3E085919491E82EE2EBF3E0F490E3EB67
:10335000F3E0E491E0936C02E4EBF3E0E491E093BA
:103360006D02E5EBF3E0E491E0936E028C01802FB7
:103370008E198F1548F4F801649186E692E00E9458
:10338000B9030F5F1F4FF3CF1092700286E692E0F1
:103390000E94D60585EC91E09093720280937102B1
:1033A00086E692E00E94D60582E080936F02E0916B
:1033B000A901F091AA018083E091A501F091A601F5
:1033C0001082E091A701F091A80188E0808310921B
:1033D000B101E091AD01F091AE0186E08083E09112
:1033E000AB01F091AC01808180618083E091AB0101
:1033F000F091AC01808188608083E091AB01F09115
:10340000AC01808180688083E091AB01F091AC01D8
:1034100080818F7D808381E0809338026CE471E04D
:1034200086E692E00E94DF108AEB91E00E94BA15D6
:1034300080913C0290913D020E94FB0C80913802E9
:10344000882339F084E299E0909337028093360222
:103450000EC086E090E00E94C32090933A028093D1
:10346000390210923B02109237021092360281E626
:103470008093490241E665E080913C0290913D02D3
:103480000E94A50B60E070E080913C0290913D02AB
:103490000E94200C80913E0290913F0221E0FC01AD
:1034A00021A720913802222319F00E94D11106C0D1
:1034B00060913602709137020E94F71564EF71E057
:1034C00080E090E00E94601883E00E94C217909311
:1034D000980180939701019711F481E301C080E383
:1034E0008093110147E050E06DE48DE091E00E948F
:1034F0009708892B69F564EF71E080E090E00E9405
:10350000601880910B0190910C01019790930C0130
:1035100080930B01892B31F786E692E00E94D60555
:1035200067E571E086E692E00E94DF106FE671E0E9
:1035300086E692E00E94DF1063E671E089E991E09F
:103540000E94DF1060E177E280E090E00E94601866
:1035500086E692E00E94D60569E771E086E692E091
:103560000E94DF1062E871E086E692E00E94DF10C0
:103570008BEA91E00E94BA1561E082E10E941B187B
:1035800061E082E10E94EB17E0918102F0918202FA
:10359000138615861486DF011B9633961E92AE178E
:1035A000BF07E1F710927F021092800211E0BE0186
:1035B0006F5F7F4F80918102909182020E94E2149E
:1035C000882309F45EC067E0CE0101960E944B118A
:1035D00098858913ECCF80917B02811127C080915F
:1035E0008102909182020E944F0BBE016F5F7F4F5C
:1035F00080918102909182020E94A41140E064EBCC
:1036000080918102909182020E94621180918102D8
:10361000909182020E94FC0A082F80918102909171
:1036200082020E944F0B002309F40CC100917C021E
:10363000CE0101960E947215801718F480917C02C9
:1036400004C0CE0101960E94721580937C02809185
:103650007F028F5F80937F028981883261F030F42E
:10366000803149F0823209F0A2CF05C08B3319F0C6
:10367000823409F09CCF809180028F5F809380021A
:1036800096CF0E943B098AE0E82EF12C90E3B92EF8
:1036900021E3A22E35EC932E0E947E1383E00E943C
:1036A000C2179093980180939701209195013091D2
:1036B00096018217930719F4109294017AC090939F
:1036C000960180939501019719F4A092110102C00F
:1036D000B0921101F0920C01E0920B0147E050E032
:1036E0006DE48DE091E00E949708892B29F764EF43
:1036F00071E080E090E00E94601880910B01909151
:103700000C01019790930C0180930B01892B31F7E9
:10371000D3CF1C821B8280911401909115019C01D2
:103720002F5F3F4F30931501209314019E838D83AB
:103730009F8208E310E020E030E040E050E0BE016E
:103740006F5F7F4F80913E0290913F020E94AE07D3
:10375000882371F064E279E080913E0290913F020B
:103760000E94F71584E299E0909337028093360225
:1037700060E08EE492E00E94740C60E08EE492E0DF
:103780000E94000C482F4D7F60E08EE492E00E9482
:10379000A50B85B7806685BF85B78F79806485BFA7
:1037A000889510928F0110928E0180918D01813049
:1037B00049F080913602909137028432994009F0A5
:1037C000A8CFD6CF10928D01C0909201D0909301D6
:1037D0002FEFC21AD20AD0929301C09292010091A7
:1037E0009001109191010F5F1F4F10939101009371
:1037F000900183E00E94C2179093980180939701F3
:1038000020919501309196018217930791F48FE0F2
:10381000C816D10474F40B3411055CF210929101B6
:10382000109290010E94F2050E947E130E943B09B3
:10383000C0CF0E94F20510929301109292010E9453
:10384000BE102ACF10937B02F1CE10929C011092F1
:103850009B0188EE93E0A0E0B0E080939D019093FF
:103860009E01A0939F01B093A0018DE291E09093FF
:103870009A018093990185EC90E09093A601809342
:10388000A50184EC90E09093A8018093A70180ECBF
:1038900090E09093AA018093A90181EC90E090932D
:1038A000AC018093AB0182EC90E09093AE018093E9
:1038B000AD0186EC90E09093B0018093AF0110923F
:1038C000B2011092B3011092B4011092B50160E000
:1038D00081E10E941B18E7EFF3E0E491E09301041B
:1038E000E3EEF3E0E491F0E0EE0FFF1FE853FC4F4E
:1038F00085919491909303048093020410920C0498
:1039000010920E0410920D04ECE0F4E0129284E0A8
:10391000E430F807D9F781E094E090938202809335
:10392000810210927F021092800210927B0289E045
:1039300080937C0281E080937D0280937E021092CE
:103940008E0210928D02109269021092680280938A
:103950006F0210927202109271028FE391E09093C5
:103960006702809366028EE492E02AE030E03093B2
:103970004F0220934E0225E030E030935102209315
:1039800050021092540220E22093550210925602E7
:1039900025E020935C0245E050E060E070E0409359
:1039A0006202509363026093640270936502109206
:1039B00057029093BF028093BE0224EC32E0309312
:1039C0005F0320935E032CE633E030936B03209378
:1039D0006A0320E633E03093B7022093B6021092D8
:1039E000BA021092BB021092BC021092BD02109259
:1039F000B9021092B80210928F0290933D02809308
:103A00003C028FE892E090933F0280933E0208953B
:103A1000EF920F931F93CF93DF93E80147FD02C00E
:103A200034E001C034E1E42F440FFF0BF7FF03C083
:103A3000F195E195F109E32E022F2E2FAE010E94A0
:103A4000281DCE01DF91CF911F910F91EF90089526
:103A50004F925F926F927F929F92AF92BF92CF925E
:103A6000DF92EF92FF920F931F93CF93DF93CDB727
:103A7000DEB729970FB6F894DEBF0FBECDBF6A013F
:103A8000122FB02E2BE3201720F0FF24F394F00E1A
:103A900002C0BCE3FB2E0F2D27E0AE014F5F5F4F4E
:103AA0000E94B61EAC018981982F9970913031F037
:103AB000E1FC06C0E0FE06C090E205C09DE203C046
:103AC0009BE201C090E0EE2DE07183FF3CC09111BC
:103AD00002C083E001C084E0811718F4212F281B65
:103AE00001C020E0E1110BC0F601822F30E28823F3
:103AF00019F031938150FBCFC20ED11C20E09923E5
:103B000029F0D6019C93F60131966F01C601039608
:103B1000E2FE0AC03EE4D6013C9341E411964C9388
:103B2000119712963C9306C03EE6F601308341E6BB
:103B300041833283FC01322F40E2332309F442C037
:103B400041933150FACF82FF44C0911102C083E00B
:103B500001C084E0811718F4212F281B01C020E048
:103B6000E1110BC0F601822F30E2882319F0319366
:103B70008150FBCFC20ED11C20E0992329F0D60141
:103B80009C93F60131966F01C6010396E2FE0BC0CD
:103B900039E4D6013C933EE411963C93119736E408
:103BA00012963C9307C039E6F60130833EE6318336
:103BB00036E63283FC01322F40E2332319F0419381
:103BC0003150FBCFFC01E20FF11D10828EEF9FEF11
:103BD000B7C0F1E0911101C0F0E06F2F70E0141652
:103BE000150624F49A012F5F3F4F02C021E030E018
:103BF000260F371FBB2029F06B2D70E06F5F7F4FC2
:103C000002C060E070E0260F371F612F70E02617BA
:103C100037071CF4121B212F01C020E03E2D387104
:103C200059F4D601322F60E2332319F06D933150ED
:103C3000FBCFC20ED11C20E0FF2331F0D6019C93B4
:103C4000B6016F5F7F4F6B01E1110BC0F601922F40
:103C500030E3992319F031939150FBCFC20ED11C60
:103C600020E09F2D940F3A81782F7071A72E84FF4A
:103C700003C0313309F49150191624F4993018F027
:103C800098E001C091E0E42F852F57FF02C0E0E0EB
:103C900080E06E2F782FE0E0F0E0AEE29A2E3A015D
:103CA000691A71082A01461A570A0B2D10E011955E
:103CB000019511096F3F8FEF780729F4D6019C9287
:103CC000C60101966C014617570784F06616770601
:103CD0006CF47F01E40CF51CA1E0B0E0AC0FBD1F5B
:103CE000EA0EFB1ED7011196BC9002C090E3B92EDC
:103CF000615071093196C60101967C016017710708
:103D000024F0D601BC926C01D5CF6417750741F43D
:103D1000363320F4353321F4A11002C081E3B82EEC
:103D2000F601B082F701822F90E2882319F0919377
:103D30008150FBCFF701E20FF11D108280E090E08F
:103D400029960FB6F894DEBF0FBECDBFDF91CF919D
:103D50001F910F91FF90EF90DF90CF90BF90AF90A9
:103D60009F907F906F905F904F900895283008F05B
:103D700027E03327DA01990F311D87FD9160009606
:103D80006105710539F432602E5F3D9330E32A9569
:103D9000E1F708959F3F30F080387105610509F023
:103DA0003C5F3C5F3D93913008F08068911DDF934C
:103DB000CF931F930F93FF92EF92192F987F9695B1
:103DC000E92F96959695E90FFF27EE53FF4F992718
:103DD0003327EE24FF24A701E701059008940794F8
:103DE00028F4360FE71EF81E491F511D660F771F76
:103DF000881F991F0694A1F70590079428F4E70EF1
:103E0000F81E491F561FC11D770F881F991F661F77
:103E10000694A1F70590079428F4F80E491F561F41
:103E2000C71FD11D880F991F661F771F0694A1F722
:103E30000590079420F4490F561FC71FD81F990FEC
:103E4000661F771F881F0694A9F784911095177035
:103E500041F0D695C79557954795F794E7941A95ED
:103E6000C1F7E8E6F0E068941590159135916591F9
:103E7000959105907FE27395E118F10A430B560B7B
:103E8000C90BD009C0F7E10CF11E431F561FC91F13
:103E9000D01D7EF4703311F48A95E6CFE89401507A
:103EA00030F0080F0AF40027021708F4202F23959A
:103EB000022F7A3328F079E37D932A95E9F710C031
:103EC0007D932A9589F6069497956795379517956A
:103ED0001794E118F10A430B560BC90BD00998F05F
:103EE00023957E9173957A3308F070E37C932013C9
:103EF000B8F77E9170617D9330F0839571E37D9387
:103F000070E32A95E1F71124EF90FF900F911F9134
:103F1000CF91DF91992787FD90950895E89409C086
:103F200097FB3EF490958095709561957F4F8F4FEC
:103F30009F4F9923A9F0F92F96E9BB279395F69502
:103F4000879577956795B795F111F8CFFAF4BB0F80
:103F500011F460FF1BC06F5F7F4F8F4F9F4F16C0E4
:103F6000882311F096E911C0772321F09EE8872F6E
:103F7000762F05C0662371F096E8862F70E060E02A
:103F80002AF09A95660F771F881FDAF7880F9695A3
:103F9000879597F908950E94DE1F0C944F200E9488
:103FA000412038F00E94482020F0952311F00C9415
:103FB00038200C943E2011240C9483200E94602011
:103FC00070F3959FC1F3950F50E0551F629FF0016C
:103FD000729FBB27F00DB11D639FAA27F00DB11D85
:103FE000AA1F649F6627B00DA11D661F829F22270E
:103FF000B00DA11D621F739FB00DA11D621F839F95
:10400000A00D611D221F749F3327A00D611D231F6A
:10401000849F600D211D822F762F6A2F11249F57B8
:1040200050409AF0F1F088234AF0EE0FFF1FBB1FBB
:10403000661F771F881F91505040A9F79E3F51057A
:1040400080F00C9438200C9483205F3FE4F3983E7A
:10405000D4F3869577956795B795F795E7959F5F24
:10406000C1F7FE2B880F911D9695879597F90895B6
:1040700097F99F6780E870E060E008959FEF80EC1B
:10408000089500240A9416161706180609060895BE
:1040900000240A9412161306140605060895092E24
:1040A0000394000C11F4882352F0BB0F40F4BF2B93
:1040B00011F460FF04C06F5F7F4F8F4F9F4F0895D3
:1040C00057FD9058440F551F59F05F3F71F04795C9
:1040D000880F97FB991F61F09F3F79F087950895AE
:1040E000121613061406551FF2CF4695F1DF08C0CD
:1040F000161617061806991FF1CF869571056105EA
:1041000008940895E894BB2766277727CB0197F991
:104110000895991B79E004C0991F961708F0961B23
:10412000881F7A95C9F780950895AA1BBB1B51E19A
:1041300007C0AA1FBB1FA617B70710F0A61BB70B17
:10414000881F991F5A95A9F780959095BC01CD01BC
:10415000089597FB072E16F4009407D077FD09D039
:104160000E94952007FC05D03EF4909581959F4FC5
:104170000895709561957F4F0895EE0FFF1F05908C
:10418000F491E02D0994CF93DF938230910510F4E0
:1041900082E090E0E0911A04F0911B0420E030E00E
:1041A000C0E0D0E0309711F14081518148175907A4
:1041B000C0F04817590761F482819381209719F064
:1041C0009B838A832BC090931B0480931A0426C080
:1041D0002115310519F04217530718F49A01BE0151
:1041E000DF01EF010280F381E02DDCCF21153105E5
:1041F00009F1281B390B2430310590F412968D916A
:104200009C9113976115710521F0FB0193838283C3
:1042100004C090931B0480931A04FD01329644C09D
:10422000FD01E20FF31F81939193225031092D93E9
:104230003C933AC02091180430911904232B41F487
:10424000209118013091190130931904209318041A
:1042500020911601309117012115310541F42DB738
:104260003EB740911A0150911B01241B350BE09180
:104270001804F0911904E217F307A0F42E1B3F0B6A
:104280002817390778F0AC014E5F5F4F24173507C8
:1042900048F04E0F5F1F5093190440931804819308
:1042A000919302C0E0E0F0E0CF01DF91CF9108955B
:1042B0000F931F93CF93DF93009709F48CC0FC01F9
:1042C00032971382128200911A0410911B04011577
:1042D000110581F420813181820F931F20911804F0
:1042E000309119042817390779F5F0931904E093F0
:1042F000180471C0D80140E050E0AE17BF0750F479
:1043000012962D913C911397AD012115310509F1BC
:10431000D901F3CF9D01DA0133832283608171815A
:10432000860F971F8217930769F4EC012881398162
:10433000260F371F2E5F3F4F318320838A819B8159
:1043400093838283452B29F4F0931B04E0931A0492
:1043500042C01396FC93EE931297ED014991599147
:104360009E01240F351FE217F30771F480819181BC
:10437000840F951F029611969C938E938281938150
:1043800013969C938E931297E0E0F0E0D80112967A
:104390008D919C911397009719F0F8018C01F6CF3D
:1043A0008D919C9198012E5F3F4F820F931F20911A
:1043B0001804309119042817390769F4309729F443
:1043C00010921B0410921A0402C0138212821093DE
:1043D000190400931804DF91CF911F910F91089554
:1043E00081E090E0F8940C94FE21FB01DC0102C016
:1043F00001900D9241505040D8F70895F894FFCFA6
:104400003030312D32332E33340A000A003030314F
:104410002D300A00010000001C0480005E00BC007A
:104420007701C33C33CE3EE3EC000000005510C2E0
:104430000FED0F9C101E10FC0F1010000000003636
:1044400004C20F52025102770A0D0A0053746172BE
:1044500074696E672E2E004D6178207265747269E2
:104460006573004D617820726574726965732065AB
:104470007863656564656421005374616E64696E78
:08448000670062792E2E2E0068
:00000001FF
