:100000000C9472000C949A000C949A000C949A0030
:100010000C949A000C949A000C949A000C949A00F8
:100020000C949A000C949A000C949A000C949A00E8
:100030000C949A000C949A000C949A000C949A00D8
:100040000C9488040C949A000C94F8040C94D20438
:100050000C949A000C949A000C949A000C949A00B8
:100060000C949A000C949A00005EBCE2613FDD8320
:10007000C29C7E20A3FD1F41009D23BE46DB65F888
:100080008C11AF32CA57E974000000080002010069
:100090000003040700000000000000000000000052
:1000A000250028002B0000000000240027002A0063
:1000B00000000000230026002900040404040404B6
:1000C0000404020202020202030303030303010207
:1000D00004081020408001020408102001020408D6
:1000E00010202A0511241FBECFEFD8E0DEBFCDBF00
:1000F00011E0A0E0B1E0E6EEF5E102C005900D925E
:10010000AC32B107D9F721E0ACE2B1E001C01D92F9
:10011000A83FB207E1F710E0C2E7D0E004C02197A2
:10012000FE010E94E60AC137D107C9F70E94C9053E
:100130000C94F10A0C9400003FB7F89480913501BB
:1001400090913601A0913701B091380126B5A89B56
:1001500005C02F3F19F00196A11DB11D3FBFBA2F59
:10016000A92F982F8827820F911DA11DB11DBC01B9
:10017000CD0143E0660F771F881F991F4A95D1F77D
:1001800008958F929F92AF92BF92CF92DF92EF929B
:10019000FF926B017C010E949C004B015C01C11429
:1001A000D104E104F104F1F00E949C00DC01CB01D8
:1001B00088199909AA09BB09883E9340A105B10590
:1001C00070F321E0C21AD108E108F10888EE880E28
:1001D00083E0981EA11CB11CC114D104E104F104F8
:1001E00019F7DDCFFF90EF90DF90CF90BF90AF90E9
:1001F0009F908F900895CF92DF92EF92FF920F938E
:100200001F93CF93DF936C017A018B01C0E0D0E0A4
:10021000CE15DF0589F0D8016D918D01D601ED91E4
:10022000FC910190F081E02DC6010995892B11F414
:100230007E0102C02196ECCFC701DF91CF911F91C3
:100240000F91FF90EF90DF90CF900895089580E098
:1002500090E00895FC01538D448D252F30E0842FCC
:1002600090E0821B930B541710F0CF9608950197DE
:100270000895FC01918D828D981761F0828DDF01C8
:10028000A80FB11D5D968C91928D9F5F9F73928F89
:1002900090E008958FEF9FEF0895FC01918D828D7E
:1002A000981731F0828DE80FF11D858D90E008954B
:1002B0008FEF9FEF0895FC01918D228D892F90E0A3
:1002C000805C9F4F821B91098F739927089589E362
:1002D00091E00E945B0121E0892B09F420E0822F4C
:1002E0000895FC01848DDF01A80FB11DA35ABF4FF3
:1002F0002C91848D90E001968F739927848FA68925
:10030000B7892C93A089B1898C9180648C93938D4B
:10031000848D981306C00288F389E02D80818F7D3B
:1003200080830895EF92FF920F931F93CF93DF93F3
:10033000EC0181E0888F9B8D8C8D981305C0E88936
:10034000F989808185FD24C0F62E0B8D10E00F5FAA
:100350001F4F0F731127E02E8C8DE8120CC00FB6C3
:1003600007FCFACFE889F989808185FFF5CFCE01B6
:100370000E947101F1CF8B8DFE01E80FF11DE35A50
:10038000FF4FF0820B8FEA89FB898081806207C072
:10039000EE89FF896083E889F989808180648083A0
:1003A00081E090E0DF91CF911F910F91FF90EF904E
:1003B0000895CF93DF93EC01888D8823C9F0EA89F3
:1003C000FB89808185FD05C0A889B9898C9186FD4E
:1003D0000FC00FB607FCF5CF808185FFF2CFA8894B
:1003E000B9898C9185FFEDCFCE010E947101E7CFD5
:1003F000DF91CF91089580E090E0892B29F00E9451
:10040000670181110C9400000895DC0180E06150C7
:1004100090F09D919827E92FEF70F0E0E859FF4F99
:10042000249192959F70E92FF0E0E858FF4FE491F6
:100430008E2F8227ECCF0895FC0190810180F281FC
:10044000E02DF8948181892B81832281892F8095E9
:1004500028232283A2E0B0E01197F1F721818223C3
:100460008183A0E1B0E01197F1F780817894E6E60E
:10047000F0E03197F1F7982381E009F480E00895E6
:10048000FC0190810180F281E02D892F809560FF31
:1004900012C0F8942281822382838181892B8183F7
:1004A000A0E1B0E01197F1F78281982B92837894C4
:1004B0008AE690E011C0F8942281822382838181B0
:1004C000892B8183AEE7B0E01197F1F78281982BF9
:1004D0009283789486E090E00197F1F70895CF92A7
:1004E000DF92EF92FF920F931F93CF93DF931F92B0
:1004F000CDB7DEB76C01E62E08E010E0FF24F394E0
:1005000061E08F2D8E2109F460E0C60149830E94CD
:100510004002FF0C0150110949810115110581F7B5
:10052000411115C0F894D6011196ED91FC911297E6
:1005300091818C918095892381831196ED91FC9115
:10054000129792818C9180958923828378940F9061
:10055000DF91CF911F910F91FF90EF90DF90CF909F
:100560000895CF92DF92EF92FF920F931F93CF9354
:10057000DF931F92CDB7DEB78C01F62E40E065E524
:1005800079830E946F02CF2C7981D72E760188E083
:10059000E80EF11CF60161916F0140E0C8010E9474
:1005A0006F02CE14DF04B1F70F90DF91CF911F914E
:1005B0000F91FF90EF90DF90CF900895FC01908114
:1005C0000180F281E02DF8948181292F20958223EA
:1005D000818378948DE7815009F130813923D9F3F3
:1005E000F8948281822382838181892B818378940C
:1005F000ACEBB3E01197F1F7F894818128232183C4
:10060000A8E8B0E01197F1F78081982381E009F024
:1006100080E07894E0E3F3E03197F1F70895AF924A
:10062000BF92CF92DF92EF92FF920F931F93CF93DF
:10063000DF931F92CDB7DEB75C01D62EE72EFC010B
:100640008585811105C0C5010E94DE02811106C0A9
:10065000F50113861586148680E065C040E060EFE2
:10066000C5010E946F0201E0F12CC12C11E0C5010F
:100670000E941C02682FC50169830E941C026981C7
:10068000613019F48130B9F433C04F2D50E0681354
:100690001BC0F5018385181730F4E40FF51F838123
:1006A000802349F402C0181731F060E0193058F483
:1006B000F501148708C0F501EF0DF11D8381802B32
:1006C000838361E009C0C12EF501E40FF51F93811A
:1006D000802F809589238383C5010E9440021F5F7C
:1006E000000F11F4F39401E0F7E0FF1508F0BFCF1D
:1006F000113408F4ADCFF501C386C11002C081E00A
:100700008587F5018381882309F4A2CFD50113964B
:10071000ED2DFE2D9501255F3F4F8D918193A21701
:10072000B307D9F781E00F90DF91CF911F910F911F
:10073000FF90EF90DF90CF90BF90AF900895AF9271
:10074000BF92CF92DF92EF92FF920F931F93CF93BE
:10075000DF938B01BC018091DC019091DD010E944F
:10076000B10240E06EEB8091DC019091DD010E94CE
:100770006F02E801680189E0C80ED11CA090DC017D
:10078000B090DD0188E0E82EF12C01E010E0C50119
:100790000E941C028111102B000F81E0E81AF10861
:1007A000B1F71993CC15DD0549F78091DC019091E3
:1007B000DD010E94DE0291E0813009F090E0892F96
:1007C000DF91CF911F910F91FF90EF90DF90CF902D
:1007D000BF90AF9008950F931F93CF93DF93CDB742
:1007E000DEB729970FB6F894DEBF0FBECDBFFC0170
:1007F0002081203161F18C018091DC019091DD013B
:100800000E94DE02882309F1BE016F5F7F4FC8019D
:100810000E949F038823C9F068E0CE0101960E94E0
:1008200005029985891311C08D818F3361F020F401
:100830008F3159F489E00CC08F3519F08F3739F0BA
:1008400004C08BE005C08AE003C080E001C08CE0FA
:1008500029960FB6F894DEBF0FBECDBFDF91CF91C2
:100860001F910F910895009769F0FC0101900020FD
:10087000E9F73197AF01481B590BBC0189E391E0BF
:100880000C94FB0080E090E008958F929F92AF92CD
:10089000BF920F931F93CF93DF93CDB7DEB7A1978E
:1008A0000FB6F894DEBF0FBECDBF19A2423008F4D8
:1008B0004AE08E010F5D1F4F842E912CA12CB12C8C
:1008C000A50194010E94B00AE62FB901CA010150A6
:1008D0001109EA3014F4E05D01C0E95CD801EC9341
:1008E000232B242B252B61F7C8010E943304A196EA
:1008F0000FB6F894DEBF0FBECDBFDF91CF911F9131
:100900000F91BF90AF909F908F9008950E94EC0A36
:100910001F920F920FB60F9211242F933F938F9334
:100920009F93AF93BF938091310190913201A09139
:100930003301B09134013091300126E0230F2D377F
:1009400020F40296A11DB11D05C029E8230F0396CE
:10095000A11DB11D2093300180933101909332018C
:10096000A0933301B0933401809135019091360109
:10097000A0913701B09138010196A11DB11D80935E
:10098000350190933601A0933701B0933801BF91A0
:10099000AF919F918F913F912F910F900FBE0F902C
:1009A0001F9018951F920F920FB60F9211242F933C
:1009B0003F934F935F936F937F938F939F93AF93E7
:1009C000BF93EF93FF9389E391E00E947101FF9140
:1009D000EF91BF91AF919F918F917F916F915F91B7
:1009E0004F913F912F910F900FBE0F901F90189530
:1009F0001F920F920FB60F9211242F938F939F93F4
:100A0000EF93FF93E0914901F0914A018081E091D9
:100A10004F01F091500182FD12C0908180915201EE
:100A20008F5F8F7320915301821751F0E091520133
:100A3000F0E0E75CFE4F958F8093520101C080810A
:100A4000FF91EF919F918F912F910F900FBE0F907B
:100A50001F901895CF93DF9310923C0110923B01A9
:100A600088EE93E0A0E0B0E080933D0190933E01DA
:100A7000A0933F01B09340018AE091E090933A0146
:100A80008093390185EC90E0909346018093450175
:100A900084EC90E0909348018093470180EC90E0D3
:100AA00090934A018093490181EC90E090934C012E
:100AB00080934B0182EC90E090934E0180934D0126
:100AC00086EC90E09093500180934F011092520178
:100AD000109253011092540110925501EFEDF0E085
:100AE0002491EBECF0E084918823C1F090E0880F32
:100AF000991FFC01EA55FF4FC591D491FC01E456C2
:100B0000FF4FA591B4919FB7F8948881E22FE095AB
:100B10008E2388838C91E823EC939FBFEFEDF0E068
:100B2000E491E093EA01EBECF0E0E491F0E0EE0F09
:100B3000FF1FE055FF4F859194919093EC018093B6
:100B4000EB011092F5011092F7011092F601E5EF1A
:100B5000F1E0129281E0ED3EF807D9F78AEE91E0DC
:100B60009093DD018093DC011092DA011092DB0199
:100B70001092D60189E08093D70181E08093D8015B
:100B80008093D9011092E9011092E801DF91CF9191
:100B90000895CF93DF93CDB7DEB761970FB6F89482
:100BA000DEBF0FBECDBF789484B5826084BD84B5AE
:100BB000816084BD85B5826085BD85B5816085BD58
:100BC00080916E00816080936E0010928100809110
:100BD0008100826080938100809181008160809398
:100BE0008100809180008160809380008091B100BD
:100BF00084608093B1008091B00081608093B000E8
:100C000080917A00846080937A0080917A0082607B
:100C100080937A0080917A008E7F80937A00809111
:100C20007A00806880937A001092C10040EE50E014
:100C3000FA0164912CEC30E0F9018491882399F059
:100C400090E0880F991FFC01EA55FF4FA591B491E0
:100C500084569F4FFC01E590F4908FB7F8949C91D7
:100C6000692B6C938FBFEAE9F0E08491FA0144911B
:100C7000F90124912223B9F1882339F1833091F0CD
:100C800038F48130A9F0823001F584B58F7D12C02F
:100C9000873091F08830A1F08430B9F480918000E1
:100CA0008F7D03C0809180008F77809380000DC07E
:100CB00084B58F7784BD09C08091B0008F7703C061
:100CC0008091B0008F7D8093B000E22FF0E0EE0FB6
:100CD000FF1FE456FF4FA591B4918FB7F8949C91F4
:100CE000492B4C938FBFE091DC01F091DD0113861D
:100CF00015861486DF011B9633961E92AE17BF072A
:100D0000E1F71092DA011092DB0111E0BE016F5F92
:100D10007F4F8091DC019091DD010E940F038823B9
:100D200009F45EC067E0CE0101960E940502988535
:100D30008913ECCF8091D601811127C08091DC010D
:100D40009091DD010E94DE02BE016F5F7F4F8091B6
:100D5000DC019091DD010E94B10240E064EB8091E2
:100D6000DC019091DD010E946F028091DC01909185
:100D7000DD010E941C02F82E8091DC019091DD01C2
:100D80000E94DE02FF2009F4AEC1F090D701CE012F
:100D900001960E94EB038F1518F48091D70104C0CF
:100DA000CE0101960E94EB038093D7018091DA0176
:100DB0008F5F8093DA018981883261F030F480316D
:100DC00049F0823209F0A2CF05C08B3319F082348A
:100DD00009F09CCF8091DB018F5F8093DB0196CF80
:100DE000E0914901F0914A0182E08083E091450160
:100DF000F09146011082E0914701F091480187E6A9
:100E0000808310925101E0914D01F0914E0186E0F6
:100E10008083E0914B01F0914C018081806180835F
:100E2000E0914B01F0914C01808188608083E091DA
:100E30004B01F0914C01808180688083E0914B01EF
:100E4000F0914C0180818F7D80838091DC019091B5
:100E5000DD010E94DE0240E06CEC8091DC019091AB
:100E6000DD010E946F024091D60164E48091DC01B3
:100E70009091DD010E946F028091D801882309F4CE
:100E800049C0E091D701E950E33040F4F0E0EE0FC3
:100E9000FF1FE050FF4F6081718102C06EEE72E073
:100EA0008091D901882381F18091D60181112CC0D4
:100EB0008FB7F8948090310190903201A090330167
:100EC000B09034018FBF6B01770FEE08FF0880915F
:100ED000DC019091DD010E941C028130D9F02FB716
:100EE000F8948091310190913201A0913301B09139
:100EF00034012FBF8C199D09AE09BF0988159905CA
:100F0000AA05BB0520F306C0072E000C880B990B21
:100F10000E94C10068EE73E080E090E00E94C10092
:100F2000E091DC01F091DD01138615861486DF0166
:100F30001B96CF0103961E92A817B907E1F7BE01D1
:100F4000665F7F4FCF010E940F03882349F067E05F
:100F5000CE010A960E9405029989891709F4C6C034
:100F6000C12CD12C8EEFE82E82ECF82EC0922C01F1
:100F7000D0922D01E0922E01F0922F01A70196014F
:100F8000C701B6010E94970A882319F088E191E011
:100F90001AC046015701E894B7F82FEF3FEF4FE72B
:100FA0005FE7C501B4010E94970A81110FC02FEFBE
:100FB0003FEF4FE75FE7C501B4010E943F091816F4
:100FC0002CF48CE191E00E94330482C02FEF3FEFBC
:100FD0004FE75FE4C701B6010E94250A18161CF40A
:100FE00080E291E0F0CF2FEF3FEF4FE75FECC701DA
:100FF000B6010E943F0987FDF3CF20E030E0A90150
:10100000C701B6010E943F0987FF0FC0E091390177
:10101000F0913A010190F081E02D6DE289E391E0D9
:101020000995F7FAF094F7F8F0942AE037ED43EADF
:101030005BE3C701B6010E94D3084B015C010E942B
:1010400044096B017C010E9473099B01AC01C5013D
:10105000B4010E94D2084B015C014AE0C701B6010D
:101060000E944504E0913901F0913A010190F0812C
:10107000E02D6EE289E391E0099520E030E040E266
:1010800051E4C501B4010E942A0A4B015C010E948F
:1010900044096B01E12CF12C4AE0C701B6010E9422
:1010A0004504C701B6010E9473099B01AC01C5014B
:1010B000B4010E94D20820E030E040E251E40E94F6
:1010C0002A0A0E94440980E090E04AE00E94450418
:1010D00084E291E00E94330488E291E00E943304AC
:1010E0000E94FB01B2CE1093D6014FCE8091DC015D
:1010F0009091DD010E94DE028823F1F1BE016F5F55
:101100007F4FCE010A960E949F038823A9F168E0D1
:10111000CE0101960E940502998589132DC069812F
:10112000F8E06F9FB00111248A81282F30E0322F20
:101130002227330F330F330F262B372B8A8580312D
:10114000C9F4688570E08F81AB01481B5109CA0161
:101150009695982F8827979587950E949C0A6051AD
:101160007109207F53E0220F331F5A95E1F7620F78
:10117000731F04C0B90102C060E874EE613854EE18
:1011800075070CF4EDCE072E000C880B990B0E940E
:10119000750920E030E040E05CE30E942A0A6B0120
:1011A0007C01E4CE5058BB27AA270E94EA080C9481
:1011B000EB090E94DD0938F00E94E40920F039F4BF
:1011C0009F3F19F426F40C94DA090EF4E095E7FB3E
:1011D0000C94D409E92F0E94FC0958F3BA1762074E
:1011E00073078407950720F079F4A6F50C941E0A7E
:1011F0000EF4E0950B2EBA2FA02D0B01B901900132
:101200000C01CA01A0011124FF27591B99F0593F75
:1012100050F4503E68F11A16F040A22F232F342FBD
:101220004427585FF3CF469537952795A795F0400B
:101230005395C9F77EF41F16BA0B620B730B840B20
:10124000BAF09150A1F0FF0FBB1F661F771F881FD8
:10125000C2F70EC0BA0F621F731F841F48F4879530
:1012600077956795B795F7959E3F08F0B0CF939522
:10127000880F08F09927EE0F9795879508950E949B
:10128000B00908F481E008950E94040A88F09F578D
:1012900098F0B92F9927B751B0F0E1F0660F771F9A
:1012A000881F991F1AF0BA95C9F714C0B13091F090
:1012B0000E941E0AB1E008950C941E0A672F782F31
:1012C0008827B85F39F0B93FCCF386957795679555
:1012D000B395D9F73EF490958095709561957F4FC1
:1012E0008F4F9F4F0895E89409C097FB3EF4909567
:1012F0008095709561957F4F8F4F9F4F9923A9F0EF
:10130000F92F96E9BB279395F6958795779567957D
:10131000B795F111F8CFFAF4BB0F11F460FF1BC0C1
:101320006F5F7F4F8F4F9F4F16C0882311F096E954
:1013300011C0772321F09EE8872F762F05C0662302
:1013400071F096E8862F70E060E02AF09A95660FBB
:10135000771F881FDAF7880F9695879597F9089574
:10136000990F0008550FAA0BE0E8FEEF16161706B6
:10137000E807F907C0F012161306E407F50798F01E
:10138000621B730B840B950B39F40A2661F0232B37
:10139000242B252B21F408950A2609F4A140A695B3
:1013A0008FEF811D811D089597F99F6780E870E098
:1013B00060E008959FEF80EC089500240A941616CB
:1013C000170618060906089500240A941216130633
:1013D000140605060895092E0394000C11F48823C1
:1013E00052F0BB0F40F4BF2B11F460FF04C06F5FDD
:1013F0007F4F8F4F9F4F089557FD9058440F551FB3
:1014000059F05F3F71F04795880F97FB991F61F086
:101410009F3F79F087950895121613061406551FFD
:10142000F2CF4695F1DF08C0161617061806991F69
:10143000F1CF86957105610508940895E894BB275E
:1014400066277727CB0197F908950E94B00908F421
:101450008FEF08950E943D0A0C94EB090E94DD096C
:1014600038F00E94E40920F0952311F00C94D4097F
:101470000C94DA0911240C941F0A0E94FC0970F3E1
:10148000959FC1F3950F50E0551F629FF001729F29
:10149000BB27F00DB11D639FAA27F00DB11DAA1F38
:1014A000649F6627B00DA11D661F829F2227B00D85
:1014B000A11D621F739FB00DA11D621F839FA00D10
:1014C000611D221F749F3327A00D611D231F849F60
:1014D000600D211D822F762F6A2F11249F575040B7
:1014E0009AF0F1F088234AF0EE0FFF1FBB1F661F32
:1014F000771F881F91505040A9F79E3F510580F0FB
:101500000C94D4090C941F0A5F3FE4F3983ED4F383
:10151000869577956795B795F795E7959F5FC1F79E
:10152000FE2B880F911D9695879597F908950E9437
:10153000B009880B990B089597FB072E16F40094B9
:1015400007D077FD09D00E94D20A07FC05D03EF4EF
:10155000909581959F4F0895709561957F4F08955F
:10156000A1E21A2EAA1BBB1BFD010DC0AA1FBB1FA7
:10157000EE1FFF1FA217B307E407F50720F0A21B19
:10158000B30BE40BF50B661F771F881F991F1A9486
:1015900069F760957095809590959B01AC01BD01B0
:1015A000CF010895AA1BBB1B51E107C0AA1FBB1F97
:1015B000A617B70710F0A61BB70B881F991F5A95DF
:1015C000A9F780959095BC01CD010895EE0FFF1FFE
:1015D0000590F491E02D099481E090E0F8940C944A
:0615E000F10AF894FFCFB0
:1015E6005E00BC007701000000009201FB002A01AA
:1015F600D9015B0139014D016E616E00696E6600AD
:0C1606006F766600204320000D0A0000F3
:00000001FF
