:100000000C9473010C949B010C949B010C949B0128
:100010000C949B010C949B010C94E6060C949B01A0
:100020000C949B010C949B010C949B010C949B01E0
:100030000C949B010C949B010C949B010C949B01D0
:100040000C947A120C949B010C94440B0C941E0B90
:100050000C949B010C949B010C949B010C949B01B0
:100060000C94B8050C949B01AED580A83FD30040FA
:100070008D142002A1C8DA12817FD9F1DB40A4A639
:10008000AF000005072061000000000000005F00D5
:10009000000007000700147F147F14242A7F2A120F
:1000A00023130864623649552250000503000000FE
:1000B0001C2241000041221C00082A1C2A080808B2
:1000C0003E0808005030000008080808080060607A
:1000D000000020100804023E5149453E00427F4086
:1000E0000042615149462141454B311814127F109D
:1000F00027454545393C4A494930017109050336D0
:1001000049494936064949291E003636000000563D
:10011000360000000814224114141414144122144F
:1001200008000201510906324979413E7E11111140
:100130007E7F494949363E414141227F4141221C4F
:100140007F494949417F090901013E414151327FBF
:100150000808087F00417F41002040413F017F089F
:100160001422417F404040407F0204027F7F040808
:10017000107F3E4141413E7F090909063E41512120
:100180005E7F09192946464949493101017F01012C
:100190003F4040403F1F2040201F7F2018207F63AA
:1001A00014081463030478040361514945430000B3
:1001B0007F4141020408102041417F0000040201F8
:1001C00002044040404040000102040020545454C6
:1001D000787F484444383844444420384444487F75
:1001E0003854545418087E090102081454543C7FB2
:1001F0000804047800447D40002040443D00007F16
:1002000010284400417F40007C041804787C0804D6
:10021000047838444444387C14141408081414181E
:100220007C7C080404084854545420043F44402073
:100230003C4040207C1C2040201C3C4030403C4442
:10024000281028440C5050503C4464544C4400083E
:1002500036410000007F0000004136080008082AEF
:100260001C08081C2A0808000609090668001980ED
:10027000400000030C0F30333C3FC0C3CCCFF0F341
:10028000FCFF00000008000201000003040700005A
:100290000000000000000001020304051112131405
:1002A00015160A0B0C0D0E0F00000000250028008B
:1002B0002B0000000000240027002A00040404048E
:1002C0000404040402020202020203030303030300
:1002D00001020408102040800102040810200102DD
:1002E00004081020541811241FBECFEFD8E0DEBF41
:1002F000CDBF24E0A4E8B1E001C01D92AB36B20747
:10030000E1F711E0A0E0B1E0E4E0F7E302C005901E
:100310000D92A438B107D9F711E0C3E7D1E004C0CA
:100320002197FE010E946319C237D107C9F70E94C5
:10033000C4120C94801B0C940000CF93DF93EC014B
:100340009C818E81981758F4E881F9810084F185A9
:10035000E02D42E0CE0109958C818F5F8C83DF9187
:10036000CF91089508958FEF9FEF08958FEF9FEF3E
:1003700008958091FC0190E09195819591090895EF
:1003800085ED8093BC008091BC0084FDFCCF109271
:10039000D60108954091B001262F30E0240F311D81
:1003A00021323105DCF42091D6012430C9F4FC015E
:1003B00080E090E0861758F43091B0012191DC0183
:1003C000A257BE4FA30FB11D2C930196F3CF80917E
:1003D000B001680F6093B00180E0089581E0089556
:1003E00082E00895CF93DF9300D0CDB7DEB7CB0185
:1003F000642F49835A830E94CA014981842F5A81FC
:10040000952F0F900F90DF91CF910895CF93DF93A9
:100410001F92CDB7DEB7698361E0CE0101960E94DD
:10042000CA0181E090E00F90DF91CF910895089587
:1004300080E090E008958F929F92AF92BF92CF920A
:10044000DF92EF92FF920F931F93CF93DF93EC0114
:100450007B01CCA8D12C860108501109DB0116962E
:100460009C918CE6890F833020F0983C09F0CFC036
:1004700003C0943909F4E4C08BE6890F823018F088
:10048000983C09F08EC06E0159EDC50ED11CD60105
:100490002D913C91A801420F531F4139510520F085
:1004A000C852DF4F1882B1C05E01B8EDAB0EB11C6F
:1004B000F5018081882309F415C1963929F0D70107
:1004C00017969C919813A1C0FE01EB52FF4F4081FB
:1004D0005181F701848195814817590709F095C02A
:1004E0004E01FBED8F0E911CD4018D919C91A801C2
:1004F000BE01615F7F4F820F931F0E94651BF60153
:1005000080819181080F191F11830083D7011696EE
:100510008C91863929F0F50180818150808373C0E8
:10052000D5011C92F7018781FE01E952FF4F8083BC
:10053000833809F483C07E01FFECEF0EF11CF70154
:10054000A081B181CE018A1B9B0B8B539F4F8017DB
:100550009107F8F032968AE001900D928A95E1F7C2
:10056000D7018D919C91F40160817181D6014D91EB
:100570005C910A960E94651BF601808191810A9622
:10058000D7012D913C911197820F931F8D939C93CE
:100590003AC08FA598A90E94760C8AA581608AA787
:1005A00034C07E01BFECEB0EF11CF701A081B181DC
:1005B000CE01C5969D01281B390BC901800F911FE3
:1005C0008B39910510F5E85CF10988E001900D92F6
:1005D0008A95E1F7D701ED91FC911197118700877A
:1005E0008D919C91BE01615F7F4FA8010A960E9488
:1005F000651BB2E0CB0ED11CF70180819181C80E42
:10060000D91ED182C08281E06DC080E06BC093387A
:1006100041F6DE01AF52BF4FFE01379688E00190F0
:100620000D928A95E1F7FE01E552FF4FCE010F963C
:1006300091838083C752DF4F1983088382E052C0C1
:10064000F7018781873008F02BCFFE01EB52FF4F77
:1006500040815181D70114962D913C911597349783
:100660006F014217530739F4408151812D913C911C
:100670004217530741F2F8E18F9FC0011124FE0198
:10068000E153FF4F20813181AE01421B530B9A0190
:100690002B533F4F281739073CF48AA581608AA75E
:1006A0008FA598A90E94760CFE01379688E0D601A6
:1006B00001900D928A95E1F7FE01E552FF4FBE01D0
:1006C000615F7F4FA801808191810E94651BFE01BF
:1006D000E752FF4F11830083C852DF4F888181505A
:1006E000888391CFDF91CF911F910F91FF90EF9071
:1006F000DF90CF90BF90AF909F908F900895DC01D6
:10070000ED91FC910084F185E02D40E009940F9378
:100710001F93CF938C01FC0164839085C62FC90F72
:100720006C2F6F70C8010E947F036C2F62956F70F1
:100730006061C801CF911F910F910C947F030F93BB
:100740001F93CF93DF931F92CDB7DEB78C01FC01CF
:100750008681681728F4C80149830E94870349816C
:10076000F8018781869586958695481758F44583C4
:10077000642F606BC8010F90DF91CF911F910F9193
:100780000C947F030F90DF91CF911F910F910895EB
:10079000CF92DF92EF92FF920F931F93CF93DF934D
:1007A000EC01F62EC42ED22E8F81869586958695E5
:1007B000081710F00FEF080F1D2D011780F0412FC3
:1007C0006F2DCE010E949F03EF2CCE1430F060E01D
:1007D000CE010E949D01E394F8CF1F5FEECF4D2D17
:1007E0006F2DCE01DF91CF911F910F91FF90EF9070
:1007F000DF90CF900C949F032F923F924F925F9285
:100800006F927F928F929F92AF92BF92CF92DF9220
:10081000EF92FF920F931F93CF93DF93CDB7DEB785
:1008200027970FB6F894DEBF0FBECDBFDC011B9635
:100830000D911C911C970115110509F462C19F834C
:100840008E83F801B491319644913196549031964B
:10085000A491EA2EF12CF7E0EF0EF11C23E0F594C1
:10086000E7942A95E1F7EB82F8013496749131967A
:10087000E491671758F0862F90E02E2F30E0F901B1
:10088000E70FF11D8E179F070CF473C06D3069F4EC
:10089000AE81BF8116968C91882309F467C060E011
:1008A0008E819F810E94870361C06A3009F029C14F
:1008B000EE81FF8181856581D62E8E9DD00C11241D
:1008C0008781869586958695D81630F0828588230F
:1008D00019F082E08287D12C4D2D60E08E819F81BE
:1008E0000E949F03AE81BF811A968C911A97823025
:1008F00008F43CC015962C9115971B96ED91FC9130
:100900001C97309741F03396E49119960C91E09F33
:10091000E02D112401C0E0E08FEF820F0E2F10E0D8
:10092000095F1F4F93E0159507959A95E1F7080F1A
:10093000EE81FF81468141506481CF010E94C8034E
:10094000AE81BF8119968C9119976D2D8E9D600D8A
:100950001124660F660F660F17968C91861708F4A0
:1009600060E060648E819F810E947F0381E090E05F
:10097000CAC050E05B2BC8010696671BEE81FF8161
:10098000F185F9834230510588F4452B09F019822D
:100990005E9C90015F9C300D1124629F8001639FDB
:1009A000100D1124080F191F412C24C0EA2FE770E5
:1009B00021F048E0442E4E1A01C0412CA82FFC0122
:1009C00040E050E07E2F7A1B761728F47491470F91
:1009D000511D3196F7CFFC01E60FF11D54904E9D4D
:1009E00080014F9D100D5E9D100D1124020F131FED
:1009F000080F191FAE81BF811496BC91BC83EE8194
:100A0000FF813580652C712CCC24C394D12C812C92
:100A1000912C7FEF7C0D7A838B81781708F05FC073
:100A2000212CAE81BF8119968C91281608F051C0F7
:100A30007A81711102C0222051F0AE81BF811596DA
:100A40004C9115974F5F6C81CD010E949F03A12CA3
:100A5000B12CA51488F5F501E80DF91DE00FF11F83
:100A60002491442061F0CE14DF0449F4E22FF0E039
:100A7000042C02C0F595E7950A94E2F72E2FEE813B
:100A8000FF818185823079F4E22F2110E295EF70A9
:100A9000F0E0EE58FD4F2491622F8E819F812D83CF
:100AA0000E949D012D81622F8E819F810E949D0158
:100AB000FFEFAF1ABF0ACDCFB12C7981B71639F04D
:100AC00060E08E819F810E949D01B394F6CF2394B4
:100AD000A8CF860C971CBFEFCB1ADB0A9ACFAE814A
:100AE000BF8117968C9117978695869586953816AF
:100AF00008F03CCF15963C921597632D606BCD01A5
:100B000033CF80E090E027960FB6F894DEBF0FBE9B
:100B1000CDBFDF91CF911F910F91FF90EF90DF90AC
:100B2000CF90BF90AF909F908F907F906F905F908D
:100B30004F903F902F9008950F93CF93DF93EC0148
:100B40000F8106950695069501504E81415020E093
:100B500060E00E94C80381E09A85911101C080E0A5
:100B60008A8760E4CE01DF91CF910F910C947F03CF
:100B70001F920F920FB60F9211242F933F934F9312
:100B80005F936F937F938F939F93AF93BF93EF93F5
:100B9000FF938091B900887F803609F49CC068F586
:100BA000883209F45BC090F4803109F454C038F401
:100BB000882309F4F6C0883009F44DC0F6C08831A6
:100BC00009F44CC0803209F45DC0EFC0803409F4F0
:100BD00068C048F4803309F455C0883309F0E5C093
:100BE0008093D501D8C0803509F44FC0883509F409
:100BF0005DC0883409F0D9C0D6C0883909F4C7C0AF
:100C0000A8F4883709F467C038F4883609F463C05B
:100C1000803709F460C0C9C0883809F4B8C0803989
:100C200009F45FC0803809F0C0C05BC0803B09F4A4
:100C300086C038F4803A09F466C0883A09F47FC067
:100C4000B4C0803C09F4A7C0883C09F4A4C0883B28
:100C500009F48AC0AAC08091FB0110C09091FA01EA
:100C60008091F901981770F5E091FA0181E08E0FFB
:100C70008093FA01F0E0E752FE4F80818093BB0041
:100C800085EC86C08093D5018EC0E091FA0181E0A9
:100C90008E0F8093FA018091BB00F0E0E752FE4F87
:100CA00080839091FA018091F9016EC0E091FA0180
:100CB00081E08E0F8093FA018091BB00F0E0E75253
:100CC000FE4F80838091D80181116DC081E08093B7
:100CD000D70184EA61C083E08093D6011092D401E9
:100CE000CFCF8091D401803208F051C0E091D4017F
:100CF00081E08E0F8093D4018091BB00F0E0EC5432
:100D0000FE4F8083BDCF85EC8093BC001092D6014E
:100D10008091D401803230F4E091D401F0E0EC54C1
:100D2000FE4F10826091D40170E0E091B201F09129
:100D3000B30184EB91E009951092D40136C084E0B0
:100D40008093D6011092B1011092B001E091AE01F2
:100D5000F091AF0109958091B001811105C081E04A
:100D60008093B00110928E01E091B10181E08E0F6D
:100D70008093B101F0E0E257FE4F80818093BB0089
:100D80009091B1018091B001981708F479CF85E86E
:100D90008093BC000AC085EC8093BC001092D60101
:100DA00004C01092D5010E94C001FF91EF91BF9144
:100DB000AF919F918F917F916F915F914F913F91F3
:100DC0002F910F900FBE0F901F9018951F920F92AA
:100DD0000FB60F9211248F939F9380918C01909165
:100DE0008D01019690938D0180938C0180918C01EF
:100DF00090918D01813E910514F4A89502C00C9448
:100E000000009F918F910F900FBE0F901F9018952B
:100E1000DC01862F262F30E0F901E454FD4FE491E8
:100E2000F0E0EE0FFF1FE855FD4F459154911396EA
:100E30005C934E931297F901E053FD4FE491EC93CC
:100E4000E0951196EC930C94D80F8EBD00000DB474
:100E500007FEFDCF8EB508953F924F925F926F923D
:100E60007F928F929F92AF92BF92CF92DF92EF923A
:100E7000FF920F931F93CF93DF93EC019AA5892FD5
:100E8000827091FD17C0FE01E153FF4FAE014B5C34
:100E90005F4F90FD07C020813181241B350B29371E
:100EA000310544F0208131814217530708F429C1EC
:100EB0009E7F9AA78E01095F1F4F502EEE24E39468
:100EC000F12C6E0181E9C81A8EEFD80A74E2A72EC0
:100ED00079E0B72E8FA498A8F401808191818F3F8B
:100EE000910511F480E00DC1F401828193818F3F5F
:100EF0009105C1F367E1C4010E94F60B982F917030
:100F0000792E80FDEFCF6FEFC4010E947C0B8FA480
:100F100098A8C4010E94790B80E60E9425078FEFF4
:100F20000E942507682EC4010E94760BF0E2F61598
:100F300008F056C062EEC4010E947C0B62E070E0D3
:100F400080E090E00E94E4117CAA97E0971538F0C9
:100F50006AE070E080E090E00E94E411BBCF8FA4D3
:100F600098A8F4018781472C871508F4482EF401CE
:100F70009085911103C0382E341801C0312CC40162
:100F80000E94790B81E60E9425073801450C461422
:100F900039F08FEF0E942507F30181933F01F7CFCE
:100FA000732C772029F08FEF0E9425077A94F9CFD0
:100FB000C4010E94760B40E767E0C4010E949B0BCE
:100FC00069857A85CB01009769F0282F2770263034
:100FD00008F080CF53E0969587955A95E1F7F3CFC7
:100FE000762CB2CF8D852AA93BA962177307E1F54C
:100FF000823809F46FCF803881F464327940D1F0BF
:10100000BA86A98642E064E279E0CE010E94B80E79
:101010006AE070E080E090E040C0833C59F46115E4
:10102000710541F078876F831A86198640E060E089
:1010300070E063C099A5992319F087FF0CC002C026
:10104000813C49F49CE6980F933028F0883C19F0D5
:10105000833809F056C0B801CE010E941B028230CD
:1010600009F038CF83E84DC06034710509F044C001
:10107000823CC9F48AA583FD2DCF243289E038074C
:1010800009F428CF8F8198859A87898738872F839D
:10109000F601608170E080E090E00E94E4116985D3
:1010A0007A8542E02AC0B801CE010E941B02982E28
:1010B00088818823E9F029A9222379F030E02150A2
:1010C0003109C901880F991F280F391FB70102C0C4
:1010D000660F771F2A95E2F702C060E070E083E0B8
:1010E000660F771F8A95E1F744E0CE010E94B80EA3
:1010F000F2E09F12EFCEB6CF41E0CE010E94B80ED3
:10110000E9CEDF91CF911F910F91FF90EF90DF908B
:10111000CF90BF90AF909F908F907F906F905F9097
:101120004F903F9008952F923F924F925F926F920F
:101130007F928F929F92AF92BF92CF92DF92EF9267
:10114000FF920F931F93CF93DF93EC017B015A0122
:10115000690148010E941E124BA45CA46DA47EA4E8
:10116000DC01CB0184199509A609B7094997A105A6
:10117000B10528F4CE010E942C0787FFEBCF8CE845
:1011800091E00197F1F789E1C816D104B0F488E045
:101190008C0D8CAB84019601A501B701CE010E9494
:1011A0007A0F182F882311F011E092C00E941E12AE
:1011B0006BA77CA78DA79EA78BC0E1E9CE16D104B3
:1011C00008F085C0C60168E170E00E94241921E0A2
:1011D000892B09F420E0C60168E170E00E9424191F
:1011E000722E760EF701828193818034910539F059
:1011F0008AA584608AA78FA598A90E94760CF7011A
:101200004680512C612C84E9282E96E9392EF7016D
:101210007782F1E07F1204C0F7013682478208C06E
:10122000611003C0F701268203C085E9F7018683B8
:10123000E8E16E9EA00111249601241B350B293193
:10124000310510F028E130E088E0820F8CAB4A0DC8
:101250005B1D8401B701CE010E947A0F182F811106
:101260000BC062E070E080E090E00E94E4115394D3
:10127000F2E0F51560F606C07A946394772011F0D9
:10128000512CC5CFF70146828AA582FF12C0498141
:101290005A816B817C818FA598A90E942A12182FF0
:1012A0008FA598A90E94AB0C60E08FA598A90E9419
:1012B0000A108AA58B7F8AA7112349F0772009F4A9
:1012C00073CF0E941E126BA77CA78DA79EA710E06C
:1012D000812FDF91CF911F910F91FF90EF90DF90C1
:1012E000CF90BF90AF909F908F907F906F905F90C6
:1012F0004F903F902F900895CF93DF93EC01862F6E
:10130000F894EB89FC892081442319F09989922B68
:1013100002C09A8992239083789490E59CBD91E0D5
:101320009DBDF894EF85F88920819E859223908356
:1013300078940E942507F894EF85F88990818D852F
:10134000892B80837894DF91CF910895CF92DF929B
:10135000EF92FF920F931F93CF93DF936C017A016B
:101360008B01C0E0D0E0CE15DF0589F0D8016D918A
:101370008D01D601ED91FC910190F081E02DC60127
:101380000995892B11F47E0102C02196ECCFC7018B
:10139000DF91CF911F910F91FF90EF90DF90CF9051
:1013A0000895FC01538D448D252F30E0842F90E06B
:1013B000821B930B541710F0CF9608950197089550
:1013C000FC01918D828D981761F0828DDF01A80F4D
:1013D000B11D5D968C91928D9F5F9F73928F90E06F
:1013E00008958FEF9FEF0895FC01918D828D9817DE
:1013F00031F0828DE80FF11D858D90E008958FEF1B
:101400009FEF0895FC01918D228D892F90E0805CE3
:101410009F4F821B91098F73992708958EEF91E05A
:101420000E94020A21E0892B09F420E0822F08950E
:10143000FC01848DDF01A80FB11DA35ABF4F2C9171
:10144000848D90E001968F739927848FA689B78940
:101450002C93A089B1898C9180648C93938D848D19
:10146000981306C00288F389E02D80818F7D8083E8
:101470000895EF92FF920F931F93CF93DF93EC01A8
:1014800081E0888F9B8D8C8D981305C0E889F98940
:10149000808185FD24C0F62E0B8D10E00F5F1F4F5D
:1014A0000F731127E02E8C8DE8120CC00FB607FCCD
:1014B000FACFE889F989808185FFF5CFCE010E94B6
:1014C000180AF1CF8B8DFE01E80FF11DE35AFF4F93
:1014D000F0820B8FEA89FB898081806207C0EE89E8
:1014E000FF896083E889F98980818064808381E055
:1014F00090E0DF91CF911F910F91FF90EF900895B1
:10150000CF93DF93EC01888D8823C9F0EA89FB89AA
:10151000808185FD05C0A889B9898C9186FD0FC0A1
:101520000FB607FCF5CF808185FFF2CFA889B98976
:101530008C9185FFEDCFCE010E94180AE7CFDF9195
:10154000CF91089580E090E0892B29F00E940E0A47
:1015500081110C9400000895CF93DF93DC01FB010F
:10156000EC01C359DE4F688179812296988182818E
:1015700040815181823028F0BA0181E0838390E07C
:1015800027C0ED01C059DE4F28813981EA01C2230D
:10159000D323D2960D90BC91A02DCA17DB07C1F4BE
:1015A000C9018095909563E0880F991F6A95E1F7CE
:1015B00084239523892B51F083E0220F331F8A95D2
:1015C000E1F72760BA016223732301C0BA0195E0F5
:1015D00071836083928381E0DF91CF9108950E94AF
:1015E000601BCF93DF93EC019CB59F7D9CBD9CB5A8
:1015F000937F9CBD9CB59C7F9CBD9DB591609DBD1E
:101600008A810E948F118C899D89DF91CF910C94E2
:10161000DB116115710579F0FB0101900020E9F7FC
:101620003197AF01461B570BDC01ED91FC91028015
:10163000F381E02D099480E090E008951F920F92CD
:101640000FB60F9211242F933F934F935F936F9395
:101650007F938F939F93AF93BF93EF93FF938EEFFF
:1016600091E00E94180AFF91EF91BF91AF919F9175
:101670008F917F916F915F914F913F912F910F903B
:101680000FBE0F901F9018951F920F920FB60F92DA
:1016900011242F938F939F93EF93FF93E0910E026A
:1016A000F0910F028081E0911402F091150282FD09
:1016B00012C09081809117028F5F8F732091180262
:1016C000821751F0E0911702F0E0E250FE4F958F43
:1016D0008093170201C08081FF91EF919F918F91BC
:1016E0002F910F900FBE0F901F90189561E00C94F2
:1016F000F10A60E00C94F10AEF92FF921F93CF93EE
:10170000DF931F92CDB7DEB77C0169830E94790B0E
:101710006981862F0E942507182FC7010E94760B2A
:10172000812F0F90DF91CF911F91FF90EF9008953F
:1017300061EE0C947C0BEF92FF921F93CF93DF939B
:1017400000D0CDB7DEB77C014A8369830E94790B54
:101750006981862F8F7180620E942507182F4A8128
:10176000842F0E942507C7010E94760B812F0F90BE
:101770000F90DF91CF911F91FF90EF900895CF923E
:10178000DF92EF92FF920F931F93CF93DF9300D0DE
:101790001F92CDB7DEB77C01142F2A835B83698348
:1017A0000E94790B6981862F8F7180620E942507C4
:1017B000082FC12E5B81D52E2A81120F1C1531F006
:1017C000F60181916F010E942507F8CFC7010E94A1
:1017D000760B802F0F900F900F90DF91CF911F917C
:1017E0000F91FF90EF90DF90CF900895EF92FF92CE
:1017F0001F93CF93DF931F92CDB7DEB77C01698330
:101800000E94790B6981862F8F710E9425078FEFC7
:101810000E942507182FC7010E94760B812F0F9079
:10182000DF91CF911F91FF90EF900895EF92FF927B
:101830000F931F93CF938C017B0166E00E94F60B00
:10184000C82FC77D82E0E816F10431F4C0628BE94D
:1018500090E0A0E0B0E00DC0EA94EF2829F085E523
:1018600090E0A0E0B0E005C0C86081E490E0A0E0B6
:10187000B0E0F801808B918BA28BB38B4C2F66E08C
:10188000C8010E949B0B66E0C8010E94F60B91E024
:101890008C1390E0892FCF911F910F91FF90EF90C3
:1018A0000895CF93DF93EC0160E00E94F60B81FD79
:1018B0000EC0482F426060E0CE010E949B0B65E0A5
:1018C00070E080E090E0DF91CF910C94E411DF9123
:1018D000CF910895FC012081318182819381281765
:1018E000390719F0822F0C948F110895CF93DF934D
:1018F000EC0160E00E946A0C888999890E94DB11E2
:101900006DE1CE010E94F60B81FF07C0888999899D
:101910000E94DB11CE010E94980B60E0CE010E9474
:10192000F60B482F4E7F60E0CE010E949B0B62E0D9
:10193000CE010E94F60BE6E9F2E0E49141E050E0CE
:1019400001C0440FEA95EAF7482B62E0CE01DF912F
:10195000CF910C949B0BCF93DF93EC010E94510C21
:1019600060E0CE010E94F60B482F416060E0CE019E
:101970000E949B0B40E767E0CE010E949B0B61E059
:10198000CE010E946A0C8985882349F02E85AE011C
:10199000475F5F4F6AE0CE010E94BF0B14C062E058
:1019A000CE010E94F60BE6E9F2E0E49121E030E09E
:1019B00001C0220FEA95EAF72095422F482362E002
:1019C000CE010E949B0B6DE1CE010E94F60B81FFC0
:1019D00005C0CE01DF91CF910C94980BDF91CF9190
:1019E00008951F93CF93DF93EC01888199812A8119
:1019F0003B818217930711F00E94D80F8A819B8147
:101A0000288139812817390711F00E94D80F1FB794
:101A1000F8948091FD01811124C0E6ECF2E08491FC
:101A2000EAEDF2E09491E82FF0E0EE0FFF1FEE54A4
:101A3000FD4FA591B491EC91E92321F461E08AE096
:101A40000E948F118AE00E94D80F8CB580618CBDF6
:101A50008CB580648CBD8DE00E94D80F8BE00E9415
:101A6000D80F8091FD018F5F8093FD011FBF60E063
:101A7000CE010E946A0C61E0CE010E94F10A65E08D
:101A800070E080E090E00E94E4114CE060E0CE0164
:101A90000E949B0B4FE564E0CE010E949B0B62E02D
:101AA00070E0CE010E94160C882311F081E08E8335
:101AB00066E0CE010E94F60B182F60E070E0CE01C8
:101AC0000E94160CCE010E94790B80E50E9425072A
:101AD00083E70E942507CE010E94760B40E06DE16E
:101AE000CE010E949B0B40E06CE1CE010E949B0B5B
:101AF000188640E767E0CE010E949B0B4CE465E04E
:101B0000CE010E949B0B62EECE010E947C0BCE01A7
:101B10000E94980BCE010E94510C60E0CE010E9401
:101B2000F60B482F4E7F60E0CE010E949B0B1150B8
:101B300081E01E3F08F080E0DF91CF911F91089572
:101B4000CF93DF93CDB7DEB728970FB6F894DEBFFB
:101B50000FBECDBFAC019CEC99839A839B839C8381
:101B60009D831E821F8218869A01E1E021153105AE
:101B7000C9F0611103C04115510569F4D901A7707D
:101B8000BB27A65EBE4F8C91A1E0B0E0AC0FBD1F9D
:101B9000AE0FB11D8C9383E0369527958A95E1F7BA
:101BA000EF5FE4CF611102C0452B39F4E62FF0E07E
:101BB000E65EFE4F8081898305C0F0E0E75EFE4F60
:101BC00080818A8329813A814B815C816D817E810C
:101BD0008F81988528960FB6F894DEBF0FBECDBFD3
:101BE000DF91CF9108956F927F928F929F92AF92E3
:101BF000BF92CF92DF92EF92FF920F931F93CF93FA
:101C0000DF93CDB7DEB728970FB6F894DEBF0FBECF
:101C1000CDBF8C01CB01D22E642F0E94A00D3901C3
:101C20004A015B017C01F80182A582FD04C087A501
:101C300090A90E94760CF80187A590A9DD2011F0EB
:101C400060E001C061E00E940A10F801C7A4D0A8BA
:101C500069827A828B829C82AD82BE82EF82F88614
:101C6000F6012685AE014F5F5F4F6AE0C6010E9414
:101C7000BF0BF6012685AE014F5F5F4F60E1C601E5
:101C80000E94BF0BF601478161E1C6010E949B0BD8
:101C9000F801B4A8C7A4D0A86FEFC6010E947C0BBE
:101CA00080FF0DC06FEFC6010E947C0B84FFF4CF54
:101CB00040E167E0C6010E949B0BF12C30C0F601A9
:101CC000F780EF2CBF1408F4EB2CF601808581110E
:101CD00002C0FE1801C0F12CC6010E94790B80EAF7
:101CE0000E9425075801F7E0AF0EB11CEA0CEA1478
:101CF00031F0F50181915F010E942507F8CFFF20A7
:101D000029F080E00E942507FA94F9CFC6010E94CD
:101D1000760B61E0C6010E946A0CFF24F394F8017F
:101D200082A582FD0FC0418152816381748187A5A4
:101D300090A90E942A12F82E60E0F80187A590A9C8
:101D40000E940A108F2D28960FB6F894DEBF0FBEA2
:101D5000CDBFDF91CF911F910F91FF90EF90DF905A
:101D6000CF90BF90AF909F908F907F906F9008958D
:101D7000CF92DF92EF92FF920F931F93CF93DF9357
:101D800000D000D0CDB7DEB7FC0195859B012115B1
:101D9000310561F0822F8770863030F483E036950C
:101DA00027958A95E1F7F3CF80E097C09154EE2410
:101DB000E3949F3708F0E12CF42E6B018F01198218
:101DC0001A821B821C827A8369834B83BE016F5FF8
:101DD0007F4FCF010E94AC0A69817A812C814B81AF
:101DE000C8010E94F30DF1E0FF1227C0811102C06B
:101DF000F12C6AC089819A818C159D0501F5EE2030
:101E0000F1F081ECF8018587878190859287818741
:101E10009A838983FB821C82BE016F5F7F4FC8015A
:101E20000E94AC0A88E0F80184AB69817A812C8138
:101E30004B81C8010E94F30D02C08823C9F2898139
:101E40009A818C159D0519F4FF24F3943DC0FF2061
:101E500019F0F3E0FF12F8CFEE20B1F3F80182A5FC
:101E600082FF11C0418152816381748187A590A94D
:101E70000E942A12F80182A58B7F82A760E087A5C5
:101E800090A90E940A10F80187A590A90E94AB0CA6
:101E90000E941E126B017C01C8010E942C07813C2C
:101EA00099F20E941E12AB01BC014C195D096E092A
:101EB0007F09F80185819681A0E0B0E0841795073D
:101EC000A607B70748F794CFF80182A582FD04C0A2
:101ED00087A590A90E94AB0C8F2D0F900F900F90AB
:101EE0000F90DF91CF911F910F91FF90EF90DF90B6
:101EF000CF900895EF92FF920F931F93CF93DF93AC
:101F0000EC017B01BA018AA99BA9F7019183808327
:101F1000DE01179688E001900D928A95E1F7211570
:101F2000310529F0A901CE010F960E94651BF7012A
:101F3000628173810833110561F06034710511F419
:101F400044E001C043E06017710709F442E0B801C2
:101F500001C040E0CE01DF91CF911F910F91FF9022
:101F6000EF900C94B80E3FB7F8948091570490917D
:101F70005804A0915904B0915A0426B5A89B05C0F5
:101F80002F3F19F00196A11DB11D3FBFBA2FA92FF8
:101F9000982F8827820F911DA11DB11DBC01CD0175
:101FA00043E0660F771F881F991F4A95D1F7089560
:101FB00090E0FC01E053FD4F2491FC01E454FD4FFF
:101FC0008491882399F090E0880F991FFC01EE54CA
:101FD000FD4FA591B491FC01E855FD4F8591949179
:101FE0008FB7F894EC91E22BEC938FBF0895CF93C9
:101FF000DF93BC018DE394E00E94090BEC0161E8E2
:1020000071E08DE394E00E94090B8C0F9D1FDF911E
:10201000CF9108951F93CF93DF93EC01162F61E0CA
:102020000E94F60B482F112311F0416001C04E7F32
:1020300061E0CE01DF91CF911F910C949B0B7F92B9
:102040008F929F92AF92BF92CF92DF92EF92FF92C8
:102050000F931F93CF93DF93CDB7DEB728970FB6BB
:10206000F894DEBF0FBECDBFFC019B0121153105E9
:1020700059F0822F8770863008F0FAC0A3E03695B9
:102080002795AA95E1F7F2CF62AB73AB87A590A92C
:10209000DC012D913C912F3F310509F4E9C0DC01B1
:1020A00012962D913C9113972F3F310509F4E0C012
:1020B000E72EF62E8F0160E00E940A10F801C7A4F7
:1020C000D0A86DE1C6010E94F60B482F44606DE177
:1020D000C6010E949B0B6CE1C6010E94F60B482FC3
:1020E0004F636CE1C6010E949B0B81E0D6011896FC
:1020F0008C93F80182A993A966E070E00E942419EC
:10210000482F440F4B5FF0E14F9FA0011124456021
:1021100064E0D8019F968D919C91D0970E949B0B73
:1021200089E190E0A0E0B0E0F80181839283A3838D
:10213000B4838BE490E09683858382A993A940E0E1
:102140002FEF3FEFB90168237923672B39F073E054
:10215000220F331F7A95E1F74F5FF4CFF80141ABBF
:1021600020953095E059FE4F3183208363E036950A
:1021700027956A95E1F73397A9014823592351839D
:1021800040832115310559F043E0969587954A958E
:10219000E1F753E0369527955A95E1F7F2CFF8012C
:1021A000E159FE4F808386E0782E88248394912C19
:1021B0007A94FFEF7F1609F454C0672D8F2D9E2D62
:1021C0000E94A00DD8019F96CD90DC90D0972983D6
:1021D0003A834B835C836D837E838F839887A72CA0
:1021E000B12C71100BC0F601468550E0BE016F5F47
:1021F0007F4FC60109960E94651B03C0F1E07F1264
:1022000008C0F501EE55FD4F6491D6011E962C9144
:1022100005C0F501EE55FD4F649121E0AE014F5F21
:102220005F4FC6010E94BF0BF501E456FD4F64915C
:10223000F6014781C6010E949B0B62E0C6010E9425
:10224000F60BF501EA56FD4FE491940101C0220F0F
:10225000EA95EAF7482F422B62E0C6010E949B0BE9
:10226000A7CFD8019F968D919C91D0970E94AB0CDF
:1022700028960FB6F894DEBF0FBECDBFDF91CF9189
:102280001F910F91FF90EF90DF90CF90BF90AF9094
:102290009F908F907F900895CF93DF93209182033A
:1022A00030918303285E3240A1F198F19B01DC015B
:1022B00088E0E8EEF2E001900D928A95E1F7C09196
:1022C000F002D091F1024115510549F0C417D5072C
:1022D00008F4AE0162EF72E0C9010E94651B86EF4F
:1022E0009FEF8C1B9D0B2091820330918303820F03
:1022F000931F90938303809382034AE950E04C1B21
:102300005D0BBE016E507D4F88EE92E00E946E1B09
:1023100002C0C0E0D0E0CE01DF91CF91089590E0FF
:10232000FC01EE57FD4F3491FC01E053FD4F249129
:10233000FC01E454FD4FE491EE2309F43BC0332348
:1023400039F1333091F038F43130A9F0323001F501
:1023500084B58F7D12C0373091F03830A1F0343021
:10236000B9F4809180008F7D03C0809180008F77C9
:10237000809380000DC084B58F7784BD09C08091A3
:10238000B0008F7703C08091B0008F7D8093B00044
:10239000F0E0EE0FFF1FE855FD4FA591B4918FB708
:1023A000F894EC91611103C020952E2301C02E2BCF
:1023B0002C938FBF08958330910528F0880F991FC3
:1023C00004970197F1F708958F929F92AF92BF9271
:1023D000CF92DF92EF92FF926B017C010E94B30FCC
:1023E0004B015C01C114D104E104F104F1F00E943D
:1023F000B30FDC01CB0188199909AA09BB09883EF2
:102400009340A105B10570F321E0C21AD108E1089B
:10241000F10888EE880E83E0981EA11CB11CC1143F
:10242000D104E104F10419F7DDCFFF90EF90DF90C4
:10243000CF90BF90AF909F908F9008952FB7F89452
:102440006091530470915404809155049091560406
:102450002FBF08958F929F92AF92BF92CF92DF923B
:10246000EF92FF92CF93DF93EC014A015B010E9450
:102470001E126B017C0167E1CE010E94F60B84FD08
:1024800029C06FEFCE010E947C0B84FFF4CF40E1A6
:1024900067E0CE010E949B0B60E0CE010E946A0CB7
:1024A00061E0CE010E946A0C0E941E12DC01CB0189
:1024B0008C199D09AE09BF0988159905AA05BB05A8
:1024C000D0F260E0CE010E946A0CCE010E94980B0F
:1024D00080E005C060E0CE010E946A0C81E0DF91DF
:1024E000CF91FF90EF90DF90CF90BF90AF909F90F3
:1024F0008F9008951F920F920FB60F9211242F9371
:102500003F938F939F93AF93BF9380915304909188
:102510005404A0915504B09156043091520426E021
:10252000230F2D3720F40296A11DB11D05C029E807
:10253000230F0396A11DB11D2093520480935304D1
:1025400090935404A0935504B0935604809157047B
:1025500090915804A0915904B0915A040196A11D7C
:10256000B11D8093570490935804A0935904B093DD
:102570005A04BF91AF919F918F913F912F910F90EE
:102580000FBE0F901F901895CF93DF93CDB7DEB796
:10259000AB970FB6F894DEBF0FBECDBF789484B56D
:1025A000826084BD84B5816084BD85B5826085BD4F
:1025B00085B5816085BD80916E00816080936E00DD
:1025C00010928100809181008260809381008091CF
:1025D0008100816080938100809180008160809380
:1025E00080008091B10084608093B1008091B00040
:1025F00081608093B00080917A00846080937A003B
:1026000080917A00826080937A0080917A008E7F38
:1026100080937A0080917A00806880937A0010928B
:10262000C10088E18093600081E280936000809126
:10263000600080648093600085E294E00E94F10C69
:1026400066E085E294E00E94F60B887F482F4560A3
:1026500066E085E294E00E949B0B62E070E085E218
:1026600094E00E94160C88E00E94D80F60E088E099
:102670000E948F116AE070E080E090E00E94E41117
:1026800061E088E00E948F116AE070E080E090E0F5
:102690000E94E41167E08AE494E00E94080766E083
:1026A0008EE494E00E9408072A9A229A239A259A97
:1026B0001092410410924204ECE6F2E0859194916C
:1026C000E82EEEE6F2E0F490EFE6F2E0E491E0933B
:1026D0004304E0E7F2E0E491E0934404E1E7F2E050
:1026E000E491E09345048C01802F8E198F1548F4F6
:1026F000F80164918DE394E00E947F030F5F1F4F08
:10270000F3CF109247048DE394E00E949C0581E88A
:1027100090E090934904809348048DE394E00E94F4
:102720009C0512E01093460483E591E00E94F70FA8
:102730008BE591E00E94F70FE0910E02F0910F02FD
:102740001083E0910A02F0910B021082E0910C02DA
:10275000F0910D0288E0808310921602E09112023F
:10276000F091130286E08083E0911002F091110253
:10277000808180618083E0911002F091110280815C
:1027800088608083E0911002F0911102808180685E
:102790008083E0911002F091110280818F7D80830F
:1027A00010929D028091A1029091A2020E94F10CD0
:1027B00080919D02882339F084E299E090939C02F5
:1027C00080939B020EC086E090E00E94691990936E
:1027D0009F0280939E021092A00210929C0210927F
:1027E0009B0281E68093AE0241E665E08091A10202
:1027F0009091A2020E949B0B60E070E08091A10288
:102800009091A2020E94160C8091A3029091A402C2
:1028100021E0DC0199962C9320919D02222351F016
:1028200067E18091A1029091A2020E94F60B80FFC5
:1028300007C031C260919B0270919C020E941F10E0
:102840008DE394E00E949C0583E691E00E94F70FDF
:1028500076EC872E77247394E8E09E2EFAE02F2EF4
:10286000312C412C512C8091A3029091A4020E9402
:102870002C0740919B0250919C02443299E05907E9
:1028800009F4DDC0833C11F47092A50290919D0281
:102890009111D5C0982F9D7F943C09F0AEC0E09176
:1028A000A302F091A4027F01A7E0EA0EF11C2781A8
:1028B0003085328721872785843C41F54091A002ED
:1028C00080919E0290919F0230E0341789F08C0134
:1028D0000396BC0163507109DB015C91521306C081
:1028E000D80111968D919C91129704C03F5FEDCF56
:1028F0008FEF9FEF9A83898308E310E022E030E0B6
:10290000AE014F5F5F4FB701CF0174C030E03BA70E
:102910002AA72115310509F45DC0452BC1F450915A
:10292000A00280919E0290919F0240E0451709F419
:102930004EC0FC010396DC0112976D917C916217E9
:10294000730719F4808190E047C04F5FEFCF1C827E
:102950001B8280910001909101019C012F5F3F4FEC
:1029600030930101209300019E838D838F8208E3C1
:1029700010E022E030E0AE01465D5F4FBE016F5FC8
:102980007F4FCF010E949308882309F10E941E12F5
:102990005B016C018091A3029091A4020E942C071C
:1029A000863C71F00E941E12DC01CB018A199B0942
:1029B000AC09BD09853F9140A105B10558F307C099
:1029C000E091A302F091A4028785908905C08FEF62
:1029D0009FEF02C080E090E09A83898308E310E0D3
:1029E00022E030E0AE014F5F5F4FB7018091A3025C
:1029F0009091A4020E94930822C0853C01F5A09109
:102A0000A302B091A40220919E0230919F0280E027
:102A10009091A002891798F4F90193E0899FE00D45
:102A2000F11D11246181728117964D915C91189767
:102A30006417750711F4128211828F5FE9CF8091BC
:102A4000A502882309F459C01092A502E091A302BF
:102A5000F091A4023796DE011196892D01900D9216
:102A60008A95E1F7F884FF2009F447C049815A812B
:102A70004432A9E05A0791F09A0180E0211531050E
:102A800039F063E0369527956A95E1F78F5FF6CFC9
:102A9000182F110F180FBA0180E004C081E010E078
:102AA00060E070E090E00496E090A002D0909E027A
:102AB000C0909F029C01012E02C0220F331F0A9476
:102AC000E2F7262B372B21153105A9F0ED2DFC2D32
:102AD00000E00E1509F44DC2A181B281A217B3071F
:102AE00019F4A081AF1107C033962432B9E03B0737
:102AF00011F00F5FEECF0197E9F68091820390917C
:102B00008303885E924009F008F44CC0E8EEF2E0DE
:102B1000DE011196892D01900D928A95E1F78F8142
:102B20008D34E9F08E34B1F54BE050E062E071E0B5
:102B3000CE0101960E944C1162E071E08EEF91E0AF
:102B40000E94090B8DE394E00E949C058EE691E0C3
:102B50000E94F70F82E091E00E94F70F1BC047E050
:102B600050E06DE071E0CE0101960E944C116DE0E5
:102B700071E08EEF91E00E94090B8DE394E00E94DA
:102B80009C058EE691E00E94F70F8DE091E00E9497
:102B9000F70F08C040E050E060E070E0CE01019621
:102BA0000E944C110E941E125B016C019B01A60148
:102BB00060E070E080E090E0A0908401B09085013A
:102BC000C0908601D0908701E0908801F090890143
:102BD00000918A0110918B010E945A1928383341C3
:102BE00041055105610571058105910509F00CF458
:102BF0004FC00E941E128B019C01609384011093B0
:102C000085012093860130938701109288011092EC
:102C1000890110928A0110928B011091A002412F1C
:102C200050E080E090E08417950714F40196FBCF04
:102C30008DE394E00E949C0583E691E00E94F70FEB
:102C400069E771E08DE394E00E94090B212F30E0E9
:102C500040E050E019A28E010F5D1F4FCA01B9017B
:102C6000A20191010E943819605DF80162938F0101
:102C7000211531054105510589F7BF018DE394E028
:102C80000E94090B61E871E08DE394E00E94090B5A
:102C90000E94A20AE8CD8091A1029091A2020E9416
:102CA000760CE091A302F091A40282A5826082A733
:102CB0006AE070E080E090E00E94E41164E279E074
:102CC0008091A3029091A4020E941F1084E299E0D7
:102CD00090939C0280939B020E941E124B015C0108
:102CE000D12CE12C9AE0C92E80E490E09DA38CA326
:102CF00080910001909101019C012F5F3F4F309323
:102D00000101209300019FA38EA392EC98A78091CC
:102D1000A3029091A402DC01D2962D913C91D3970D
:102D20003BA32AA3EE2089F02E2D30E0215031095B
:102D3000A901440F551F240F351F01E010E002C008
:102D4000000F111F2A95E2F702C000E010E020E01A
:102D500030E040E050E0BE016E5D7F4F0E9493087E
:102D60000E941E122B013C01F12C8091A302909134
:102D7000A4020E942C07823C89F4FE013196EF0DDB
:102D8000F11DEF0DF11DA091A302B091A4021796C1
:102D90008D919C91189791838083F3940E941E12C9
:102DA000DC01CB0184199509A609B709C897A105CB
:102DB000B10520F4B3E0BF15C0F633C0F11031C047
:102DC0000E941E12DC01CB0188199909AA09BB09CE
:102DD00081369A4EA105B10508F032CD2D2D30E097
:102DE0002F5F3F4F8E2D90E00196289FB001299FC5
:102DF000700D389F700D1124675E7F4F660F771F2F
:102E0000072E000C880B990B0E94E41181E08E0DB7
:102E10008370E82E81E08D0D6C2D0E941819D92E3B
:102E200063CF712C612C7F1408F040C0E3ECE8A75D
:102E300080919D0289A7FE013196E70DF11DE70DF6
:102E4000F11D008111811DA30CA320E030E040E0C2
:102E500050E0BE016E5D7F4F8091A3029091A4026D
:102E60000E9493080E941E121B012C010E941E1238
:102E7000DC01CB0182199309A409B509813E9105B2
:102E8000A105B10558F48091A3029091A4020E947B
:102E90002C07682EF0E88F13E9CF7F2C65E070E0F7
:102EA00080E090E00E94E4117394BDCF20E86212AC
:102EB00087CFE091A302F091A402878590890097C3
:102EC00009F47ECF368520919D02321379CF9093FD
:102ED0009C0280939B028091A1029091A2020E9489
:102EE000760C6AE070E080E090E00E94E41160916E
:102EF0009B0270919C028091A3029091A4020E9477
:102F00001F101DA21CA2F1E8F8A787E0F82E08E325
:102F100010E020E030E040E050E0BE016E5D7F4F09
:102F20008091A3029091A4020E949308811119C07C
:102F3000FA94F1100FC064E279E08091A3029091BD
:102F4000A4020E941F1084E299E090939C02809357
:102F50009B0236CF63E070E080E090E00E94E411D5
:102F6000D6CFE091A302F091A40282A58D7F82A723
:102F700067CC3BA32AA380E88F835C834B834432D6
:102F80005940C9F062E070E080E090E00E94E411F6
:102F900008E310E022E030E0AE014E5D5F4FBE017D
:102FA0006F5F7F4F8091A3029091A4020E949308CB
:102FB000811117C008C062E070E080E090E00E94DC
:102FC000E4110B811C8122E030E0AE014E5D5F4FC9
:102FD000BE016F5F7F4F8091A3029091A4020E9477
:102FE00093080E941E125B016C018AA19BA1909321
:102FF000B2028093B1028F2D90E09093B002809343
:10300000AF028091A3029091A4020E942C07813804
:10301000B1F00E941E12AB01BC014A195B096C0998
:103020007D09E091A302F091A40285819681A0E040
:10303000B0E084179507A607B70718F75ECDAAA1D9
:10304000BBA16091A00280919E0290919F02AC0171
:1030500020E0261751F04D5F5F4FFA013397308122
:103060003F1511F02F5FF5CF622FFC0123E0629F27
:10307000E00DF11D1124F082B283A1832091A00202
:1030800062133BCD6F5F6093A00270E06F5F7F4F74
:103090009B01220F331F620F731F0E94961A909399
:1030A0009F0280939E0229CDCF93DF93EEEFF1E054
:1030B0001382128288EE93E0A0E0B0E084839583CF
:1030C000A683B78325E231E03183208325EC30E00D
:1030D0003587248724EC30E03787268720EC30E0E2
:1030E000318B208B21EC30E0338B228B22EC30E0D3
:1030F000358B248B26EC30E0378B268B118E128E8D
:10310000138E148EEBE5F4E0138212828483958390
:10311000A683B78387E391E091838083EDE3F4E0B6
:103120001382128281E081871486138689E491E0FC
:1031300091838083E5E2F4E08AE090E091838083EC
:1031400085E090E093838283168280E287831086F5
:1031500085E0868785E090E0A0E0B0E0848B958BE9
:10316000A68BB78B1186A3EBB2E0D096FC93EE93BF
:103170009F9788EE92E0909383038093820380E987
:1031800093E090938F0380938E0384E893E0989666
:103190009C938E9397979B961D921D921D921C92C5
:1031A0009E979A961C929A9799961C9299971C9220
:1031B000CBE9D2E0FF83EE83B987A887DF91CF9177
:1031C00008952F923F924F925F926F927F928F92CB
:1031D0009F92AF92BF92CF92DF92EF92FF920F93A6
:1031E0001F93CF93DF93CDB7DEB7CA1BDB0B0FB6B0
:1031F000F894DEBF0FBECDBF09942A88398848886D
:103200005F846E847D848C849B84AA84B984C88402
:10321000DF80EE80FD800C811B81AA81B981CE0FF9
:10322000D11D0FB6F894DEBF0FBECDBFED010895DE
:10323000991B79E004C0991F961708F0961B881F08
:103240007A95C9F780950895AA1BBB1B51E107C069
:10325000AA1FBB1FA617B70710F0A61BB70B881F26
:10326000991F5A95A9F780959095BC01CD010895B5
:10327000A1E21A2EAA1BBB1BFD010DC0AA1FBB1F7A
:10328000EE1FFF1FA217B307E407F50720F0A21BEC
:10329000B30BE40BF50B661F771F881F991F1A9459
:1032A00069F760957095809590959B01AC01BD0183
:1032B000CF0108952A193B094C095D096E097F0960
:1032C000800B910B0895EE0FFF1F0590F491E02DF8
:1032D0000994CF93DF938230910510F482E090E05F
:1032E000E0916904F0916A0420E030E0C0E0D0E0B1
:1032F000309711F14081518148175907C0F04817A4
:10330000590761F482819381209719F09B838A8306
:103310002BC090936A048093690426C0211531055F
:1033200019F04217530718F49A01BE01DF01EF01AB
:103330000280F381E02DDCCF2115310509F1281B36
:10334000390B2430310590F412968D919C9113978E
:103350006115710521F0FB019383828304C0909372
:103360006A0480936904FD01329644C0FD01E20FB6
:10337000F31F81939193225031092D933C933AC0CE
:103380002091670430916804232B41F420911601A9
:103390003091170130936804209367042091140141
:1033A000309115012115310541F42DB73EB74091FB
:1033B000180150911901241B350BE0916704F0911D
:1033C0006804E217F307A0F42E1B3F0B28173907F8
:1033D00078F0AC014E5F5F4F2417350748F04E0F71
:1033E0005F1F50936804409367048193919302C0D8
:1033F000E0E0F0E0CF01DF91CF9108950F931F93AC
:10340000CF93DF93009709F48CC0FC0132971382AD
:1034100012820091690410916A040115110581F46A
:1034200020813181820F931F2091670430916804BD
:103430002817390779F5F0936804E093670471C0A1
:10344000D80140E050E0AE17BF0750F412962D911E
:103450003C911397AD012115310509F1D901F3CF45
:103460009D01DA013383228360817181860F971F6A
:103470008217930769F4EC0128813981260F371FE1
:103480002E5F3F4F318320838A819B819383828388
:10349000452B29F4F0936A04E093690442C0139623
:1034A000FC93EE931297ED01499159919E01240FDF
:1034B000351FE217F30771F480819181840F951F06
:1034C000029611969C938E938281938113969C937E
:1034D0008E931297E0E0F0E0D80112968D919C91C6
:1034E0001397009719F0F8018C01F6CF8D919C91FC
:1034F00098012E5F3F4F820F931F209167043091F8
:1035000068042817390769F4309729F410926A047F
:103510001092690402C0138212821093680400930F
:103520006704DF91CF911F910F910895A0E0B0E063
:10353000ECE9FAE10C94E518EC01009721F4CB01D9
:103540000E946919B8C0FC01E60FF71F9C012250C8
:103550003109E217F30708F4ACC0D9010D911C91B1
:10356000119706171707B0F00530110508F49FC032
:10357000C80104978617970708F499C002501109EB
:10358000061B170B019311936D937C93CF010E943F
:10359000FE198DC05B01A01AB10A4C01800E911E6C
:1035A000A0916904B0916A0440E050E0E12CF12C54
:1035B000109709F44AC0A815B905D1F56D907C9013
:1035C0001197630182E0C80ED11CCA14DB0480F19C
:1035D000A3014A195B096A0182E0C80ED11C129648
:1035E000BC9012971396AC91B5E0CB16D10440F085
:1035F000B282A38351834083D9016D937C930AC027
:103600000E5F1F4FC301800F911FF90191838083CB
:10361000EB2DFA2FE114F10431F0D7011396FC934E
:10362000EE93129744C0F0936A04E09369043FC09C
:103630008D919C9111974817590708F4AC017D01B1
:1036400012960D90BC91A02DB3CF809167049091FC
:10365000680488159905E1F446175707C8F4809166
:10366000140190911501009741F48DB79EB74091D8
:10367000180150911901841B950BE817F907C8F43C
:10368000F0936804E0936704F901718360830FC0CD
:10369000CB010E9469197C01009759F0A801BE0175
:1036A0000E94651BCE010E94FE19C70104C0CE0115
:1036B00002C080E090E0CDB7DEB7EEE00C940119D7
:1036C00081E090E0F8940C94801BFB01DC0102C0C7
:1036D00001900D9241505040D8F70895681779072E
:1036E00068F4FB01DC01E40FF51FA40FB51F02C055
:1036F00002900E9241505040D8F708950C94651BEB
:04370000F894FFCF6B
:1037040001003030302D30302E30300A003030306F
:103714002D300A0000006B048000C33C33CE3EE32E
:10372400EC00000000390AA609D109800A020AE067
:1037340009F409000000000602F2011802B201B9FE
:1037440001B601B30100000000FC03A6091802172A
:10375400027C0953796E63696E6700776974682027
:103764005043002A2A4D61737465722A2A005265F7
:103774006365697665643A20004E6F6465733A2028
:04378400000D0A002A
:00000001FF
